{
  "contractName": "ERC721",
  "abi": [
    {
      "anonymous": false,
      "inputs": [
        {
          "indexed": true,
          "internalType": "address",
          "name": "_owner",
          "type": "address"
        },
        {
          "indexed": true,
          "internalType": "address",
          "name": "_approved",
          "type": "address"
        },
        {
          "indexed": true,
          "internalType": "uint256",
          "name": "_tokenId",
          "type": "uint256"
        }
      ],
      "name": "Approval",
      "type": "event"
    },
    {
      "anonymous": false,
      "inputs": [
        {
          "indexed": true,
          "internalType": "address",
          "name": "from",
          "type": "address"
        },
        {
          "indexed": true,
          "internalType": "address",
          "name": "to",
          "type": "address"
        },
        {
          "indexed": true,
          "internalType": "uint256",
          "name": "tokenId",
          "type": "uint256"
        }
      ],
      "name": "Transfer",
      "type": "event"
    },
    {
      "inputs": [
        {
          "internalType": "address",
          "name": "_owner",
          "type": "address"
        }
      ],
      "name": "balanceOf",
      "outputs": [
        {
          "internalType": "uint256",
          "name": "",
          "type": "uint256"
        }
      ],
      "stateMutability": "view",
      "type": "function"
    },
    {
      "inputs": [
        {
          "internalType": "uint256",
          "name": "_tokenId",
          "type": "uint256"
        }
      ],
      "name": "ownerOf",
      "outputs": [
        {
          "internalType": "address",
          "name": "",
          "type": "address"
        }
      ],
      "stateMutability": "view",
      "type": "function"
    },
    {
      "inputs": [
        {
          "internalType": "address",
          "name": "_from",
          "type": "address"
        },
        {
          "internalType": "address",
          "name": "_to",
          "type": "address"
        },
        {
          "internalType": "uint256",
          "name": "_tokenId",
          "type": "uint256"
        }
      ],
      "name": "transferFrom",
      "outputs": [],
      "stateMutability": "nonpayable",
      "type": "function"
    },
    {
      "inputs": [
        {
          "internalType": "address",
          "name": "_to",
          "type": "address"
        },
        {
          "internalType": "uint256",
          "name": "tokenId",
          "type": "uint256"
        }
      ],
      "name": "approve",
      "outputs": [],
      "stateMutability": "nonpayable",
      "type": "function"
    }
  ],
  "bytecode": "0x608060405234801561001057600080fd5b50610d4e806100206000396000f3fe608060405234801561001057600080fd5b506004361061004c5760003560e01c8063095ea7b31461005157806323b872dd1461006d5780636352211e1461008957806370a08231146100b9575b600080fd5b61006b600480360381019061006691906107ed565b6100e9565b005b6100876004803603810190610082919061082d565b610285565b005b6100a3600480360381019061009e9190610880565b6102a8565b6040516100b091906108bc565b60405180910390f35b6100d360048036038101906100ce91906108d7565b610359565b6040516100e09190610913565b60405180910390f35b60006100f4826102a8565b90508073ffffffffffffffffffffffffffffffffffffffff168373ffffffffffffffffffffffffffffffffffffffff161415610165576040517f08c379a000000000000000000000000000000000000000000000000000000000815260040161015c906109b1565b60405180910390fd5b8073ffffffffffffffffffffffffffffffffffffffff163373ffffffffffffffffffffffffffffffffffffffff16146101d3576040517f08c379a00000000000000000000000000000000000000000000000000000000081526004016101ca90610a43565b60405180910390fd5b826002600084815260200190815260200160002060006101000a81548173ffffffffffffffffffffffffffffffffffffffff021916908373ffffffffffffffffffffffffffffffffffffffff160217905550818373ffffffffffffffffffffffffffffffffffffffff168273ffffffffffffffffffffffffffffffffffffffff167f8c5be1e5ebec7d5bd14f71427d1e84f3dd0314c0f7b2291e5b200ac8c7c3b92560405160405180910390a4505050565b61028f3382610411565b61029857600080fd5b6102a38383836104a0565b505050565b60008060008084815260200190815260200160002060009054906101000a900473ffffffffffffffffffffffffffffffffffffffff169050600073ffffffffffffffffffffffffffffffffffffffff168173ffffffffffffffffffffffffffffffffffffffff161415610350576040517f08c379a000000000000000000000000000000000000000000000000000000000815260040161034790610aaf565b60405180910390fd5b80915050919050565b60008073ffffffffffffffffffffffffffffffffffffffff168273ffffffffffffffffffffffffffffffffffffffff1614156103ca576040517f08c379a00000000000000000000000000000000000000000000000000000000081526004016103c190610aaf565b60405180910390fd5b600160008373ffffffffffffffffffffffffffffffffffffffff1673ffffffffffffffffffffffffffffffffffffffff168152602001908152602001600020549050919050565b600061041c826106e3565b61045b576040517f08c379a000000000000000000000000000000000000000000000000000000000815260040161045290610b1b565b60405180910390fd5b6000610466836102a8565b90508073ffffffffffffffffffffffffffffffffffffffff168473ffffffffffffffffffffffffffffffffffffffff161491505092915050565b600073ffffffffffffffffffffffffffffffffffffffff168273ffffffffffffffffffffffffffffffffffffffff161415610510576040517f08c379a000000000000000000000000000000000000000000000000000000000815260040161050790610bad565b60405180910390fd5b8273ffffffffffffffffffffffffffffffffffffffff16610530826102a8565b73ffffffffffffffffffffffffffffffffffffffff1614610586576040517f08c379a000000000000000000000000000000000000000000000000000000000815260040161057d90610c3f565b60405180910390fd5b60018060008573ffffffffffffffffffffffffffffffffffffffff1673ffffffffffffffffffffffffffffffffffffffff16815260200190815260200160002060008282546105d59190610c8e565b9250508190555060018060008473ffffffffffffffffffffffffffffffffffffffff1673ffffffffffffffffffffffffffffffffffffffff168152602001908152602001600020600082825461062b9190610cc2565b925050819055508160008083815260200190815260200160002060006101000a81548173ffffffffffffffffffffffffffffffffffffffff021916908373ffffffffffffffffffffffffffffffffffffffff160217905550808273ffffffffffffffffffffffffffffffffffffffff168473ffffffffffffffffffffffffffffffffffffffff167fddf252ad1be2c89b69c2b068fc378daa952ba7f163c4a11628f55a4df523b3ef60405160405180910390a4505050565b60008060008084815260200190815260200160002060009054906101000a900473ffffffffffffffffffffffffffffffffffffffff169050600073ffffffffffffffffffffffffffffffffffffffff168173ffffffffffffffffffffffffffffffffffffffff161415915050919050565b600080fd5b600073ffffffffffffffffffffffffffffffffffffffff82169050919050565b600061078482610759565b9050919050565b61079481610779565b811461079f57600080fd5b50565b6000813590506107b18161078b565b92915050565b6000819050919050565b6107ca816107b7565b81146107d557600080fd5b50565b6000813590506107e7816107c1565b92915050565b6000806040838503121561080457610803610754565b5b6000610812858286016107a2565b9250506020610823858286016107d8565b9150509250929050565b60008060006060848603121561084657610845610754565b5b6000610854868287016107a2565b9350506020610865868287016107a2565b9250506040610876868287016107d8565b9150509250925092565b60006020828403121561089657610895610754565b5b60006108a4848285016107d8565b91505092915050565b6108b681610779565b82525050565b60006020820190506108d160008301846108ad565b92915050565b6000602082840312156108ed576108ec610754565b5b60006108fb848285016107a2565b91505092915050565b61090d816107b7565b82525050565b60006020820190506109286000830184610904565b92915050565b600082825260208201905092915050565b7f4572726f72202d206170726f626163696f6e20616c2070726f7069657461726960008201527f6f2061637475616c000000000000000000000000000000000000000000000000602082015250565b600061099b60288361092e565b91506109a68261093f565b604082019050919050565b600060208201905081810360008301526109ca8161098e565b9050919050565b7f4c6120706572736f6e6120717565206c6c616d612061637475616c6d656e746560008201527f20646562652073657220656c2070726f706965746172696f0000000000000000602082015250565b6000610a2d60388361092e565b9150610a38826109d1565b604082019050919050565b60006020820190508181036000830152610a5c81610a20565b9050919050565b7f4c6120446972656363696f6e206573746120656e204365726f00000000000000600082015250565b6000610a9960198361092e565b9150610aa482610a63565b602082019050919050565b60006020820190508181036000830152610ac881610a8c565b9050919050565b7f456c20546f6b656e206e6f206578697374650000000000000000000000000000600082015250565b6000610b0560128361092e565b9150610b1082610acf565b602082019050919050565b60006020820190508181036000830152610b3481610af8565b9050919050565b7f4572726f72202d20455243373231205452414e6649455245204120554e41204460008201527f4952454343494f4e204345524f00000000000000000000000000000000000000602082015250565b6000610b97602d8361092e565b9150610ba282610b3b565b604082019050919050565b60006020820190508181036000830152610bc681610b8a565b9050919050565b7f534520455354412054524154414e444f204445205452414e464552495220412060008201527f554e41204944524543494f4e204e4f20504f5250494554415249412100000000602082015250565b6000610c29603c8361092e565b9150610c3482610bcd565b604082019050919050565b60006020820190508181036000830152610c5881610c1c565b9050919050565b7f4e487b7100000000000000000000000000000000000000000000000000000000600052601160045260246000fd5b6000610c99826107b7565b9150610ca4836107b7565b925082821015610cb757610cb6610c5f565b5b828203905092915050565b6000610ccd826107b7565b9150610cd8836107b7565b9250827fffffffffffffffffffffffffffffffffffffffffffffffffffffffffffffffff03821115610d0d57610d0c610c5f565b5b82820190509291505056fea264697066735822122028ae85f9888496588577d7a7ac302278e863fc0ffb6cf642ccb9f7b1f43b200364736f6c634300080a0033",
  "immutableReferences": {},
  "source": "// SPDX-License-Identifier: MIT \r\npragma solidity ^0.8.10;\r\n\r\n/*\r\n Se crea la funcion para mintear tokens\r\n    1. El NFT debe apuntar a una direccion\r\n    2. Se debe mantener un registro de los IDS de los TOKENS\r\n    3. se debe mantener un registro de los propietarios (direciones de wallets) de los tokens Id\r\n    4. Cuantos tokens tiene un propietario (Direccion)\r\n    5. Se crea unevento que haga un registro de tranferencia - direccion del contrato donde \r\n       se esta acuando (Minteo) el Id.\r\n*/\r\n\r\nimport './interfaces/IERC721.sol';\r\n\r\ncontract ERC721 is IERC721 {\r\n\r\n    mapping(uint256 => address) private _tokenOwner;\r\n\r\n    mapping(address => uint256) private _OwnedTokenCount;\r\n\r\n    // Verifica los tokens aprovados en la direccion\r\n    mapping(uint256 => address) private _tokenApprovals;\r\n\r\n    function balanceOf(address _owner) public view returns (uint256) {\r\n        require (_owner != address(0), 'La Direccion esta en Cero');\r\n        return _OwnedTokenCount[_owner];\r\n    }\r\n\r\n    function ownerOf(uint256 _tokenId) public view  returns (address) {\r\n        address owner = _tokenOwner [_tokenId];\r\n        require (owner != address(0), 'La Direccion esta en Cero');\r\n        return owner;\r\n    }\r\n\r\n    //\r\n\r\n    function _exists(uint256 tokenId) internal view returns(bool) {\r\n        address owner = _tokenOwner[tokenId];\r\n\r\n        return owner != address(0);\r\n    }\r\n\r\n    function _mint(address to, uint256 tokenId) internal virtual {\r\n        //revisaremos que el address no sea cero!\r\n        require(to != address(0), 'ERC721 DIRECCION DE ACUCCION ES CERO');\r\n\r\n        //TokenID debe no existir anteriomente\r\n        require(!_exists(tokenId), 'ERC721 YA EXISTE');\r\n        \r\n        //Apuntamos la direccion del propietario\r\n        _tokenOwner[tokenId] = to;\r\n\r\n        // Cuantos tokens tiene ese propietario (Direccion) ?\r\n        _OwnedTokenCount[to] += 1;\r\n\r\n        // se emite el vento de tranferencia\r\n        emit Transfer(address(0), to, tokenId);\r\n    }\r\n\r\n    //debemos lamar esta funcion para aumentar la seguiridad\r\n    function _transferFrom(address _from, address _to, uint256 _tokenId) internal {\r\n        require(_to != address(0), 'Error - ERC721 TRANfIERE A UNA DIRECCION CERO');\r\n        require(ownerOf(_tokenId) == _from, 'SE ESTA TRATANDO DE TRANFERIR A UNA IDRECION NO PORPIETARIA!');\r\n\r\n        _OwnedTokenCount[_from] -= 1;\r\n        _OwnedTokenCount[_to] += 1;\r\n\r\n        _tokenOwner[_tokenId] = _to;\r\n\r\n        emit Transfer(_from, _to, _tokenId);\r\n    }\r\n\r\n    function transferFrom(address _from, address _to, uint256 _tokenId) public {\r\n        require(isApprovedOrOwner(msg.sender, _tokenId));\r\n        _transferFrom(_from, _to, _tokenId);\r\n    }\r\n\r\n    function approve(address _to, uint256 tokenId) public {\r\n        address owner = ownerOf(tokenId);\r\n        require(_to != owner, 'Error - aprobacion al propietario actual');\r\n        require(msg.sender == owner, 'La persona que llama actualmente debe ser el propietario');\r\n        _tokenApprovals[tokenId] = _to;\r\n        emit Approval(owner, _to, tokenId);\r\n    }\r\n\r\n    function isApprovedOrOwner(address spender, uint256 tokenId) internal view returns(bool) {\r\n        require(_exists(tokenId), 'El Token no existe');\r\n        address owner = ownerOf(tokenId);\r\n        return(spender == owner);\r\n    }\r\n\r\n\r\n}",
  "sourcePath": "C:\\Users\\Luis\\Documents\\Ticongle\\Blockchain\\tokenmall\\src\\contracts\\ERC721.sol",
  "compiler": {
    "name": "solc",
    "version": "0.8.10+commit.fc410830.Emscripten.clang"
  },
  "schemaVersion": "3.4.16",
  "updatedAt": "2023-10-12T21:36:01.624Z",
  "devdoc": {
    "kind": "dev",
    "methods": {},
    "version": 1
  },
  "userdoc": {
    "kind": "user",
    "methods": {},
    "version": 1
  }
}