{
  "contractName": "ERC721Enumerable",
  "abi": [
    {
      "anonymous": false,
      "inputs": [
        {
          "indexed": true,
          "internalType": "address",
          "name": "_owner",
          "type": "address"
        },
        {
          "indexed": true,
          "internalType": "address",
          "name": "_approved",
          "type": "address"
        },
        {
          "indexed": true,
          "internalType": "uint256",
          "name": "_tokenId",
          "type": "uint256"
        }
      ],
      "name": "Approval",
      "type": "event"
    },
    {
      "anonymous": false,
      "inputs": [
        {
          "indexed": true,
          "internalType": "address",
          "name": "from",
          "type": "address"
        },
        {
          "indexed": true,
          "internalType": "address",
          "name": "to",
          "type": "address"
        },
        {
          "indexed": true,
          "internalType": "uint256",
          "name": "tokenId",
          "type": "uint256"
        }
      ],
      "name": "Transfer",
      "type": "event"
    },
    {
      "inputs": [
        {
          "internalType": "address",
          "name": "_to",
          "type": "address"
        },
        {
          "internalType": "uint256",
          "name": "tokenId",
          "type": "uint256"
        }
      ],
      "name": "approve",
      "outputs": [],
      "stateMutability": "nonpayable",
      "type": "function"
    },
    {
      "inputs": [
        {
          "internalType": "address",
          "name": "_owner",
          "type": "address"
        }
      ],
      "name": "balanceOf",
      "outputs": [
        {
          "internalType": "uint256",
          "name": "",
          "type": "uint256"
        }
      ],
      "stateMutability": "view",
      "type": "function"
    },
    {
      "inputs": [
        {
          "internalType": "uint256",
          "name": "_tokenId",
          "type": "uint256"
        }
      ],
      "name": "ownerOf",
      "outputs": [
        {
          "internalType": "address",
          "name": "",
          "type": "address"
        }
      ],
      "stateMutability": "view",
      "type": "function"
    },
    {
      "inputs": [
        {
          "internalType": "address",
          "name": "_from",
          "type": "address"
        },
        {
          "internalType": "address",
          "name": "_to",
          "type": "address"
        },
        {
          "internalType": "uint256",
          "name": "_tokenId",
          "type": "uint256"
        }
      ],
      "name": "transferFrom",
      "outputs": [],
      "stateMutability": "nonpayable",
      "type": "function"
    },
    {
      "inputs": [
        {
          "internalType": "uint256",
          "name": "index",
          "type": "uint256"
        }
      ],
      "name": "tokenByIndex",
      "outputs": [
        {
          "internalType": "uint256",
          "name": "",
          "type": "uint256"
        }
      ],
      "stateMutability": "view",
      "type": "function"
    },
    {
      "inputs": [
        {
          "internalType": "address",
          "name": "owner",
          "type": "address"
        },
        {
          "internalType": "uint256",
          "name": "index",
          "type": "uint256"
        }
      ],
      "name": "tokenOfOwnerByIndex",
      "outputs": [
        {
          "internalType": "uint256",
          "name": "",
          "type": "uint256"
        }
      ],
      "stateMutability": "view",
      "type": "function"
    },
    {
      "inputs": [],
      "name": "totalSupply",
      "outputs": [
        {
          "internalType": "uint256",
          "name": "",
          "type": "uint256"
        }
      ],
      "stateMutability": "view",
      "type": "function"
    }
  ],
  "bytecode": "0x608060405234801561001057600080fd5b50611000806100206000396000f3fe608060405234801561001057600080fd5b506004361061007d5760003560e01c80632f745c591161005b5780632f745c59146100d85780634f6ccce7146101085780636352211e1461013857806370a08231146101685761007d565b8063095ea7b31461008257806318160ddd1461009e57806323b872dd146100bc575b600080fd5b61009c60048036038101906100979190610a04565b610198565b005b6100a6610334565b6040516100b39190610a53565b60405180910390f35b6100d660048036038101906100d19190610a6e565b610341565b005b6100f260048036038101906100ed9190610a04565b610364565b6040516100ff9190610a53565b60405180910390f35b610122600480360381019061011d9190610ac1565b61044e565b60405161012f9190610a53565b60405180910390f35b610152600480360381019061014d9190610ac1565b6104bf565b60405161015f9190610afd565b60405180910390f35b610182600480360381019061017d9190610b18565b610570565b60405161018f9190610a53565b60405180910390f35b60006101a3826104bf565b90508073ffffffffffffffffffffffffffffffffffffffff168373ffffffffffffffffffffffffffffffffffffffff161415610214576040517f08c379a000000000000000000000000000000000000000000000000000000000815260040161020b90610bc8565b60405180910390fd5b8073ffffffffffffffffffffffffffffffffffffffff163373ffffffffffffffffffffffffffffffffffffffff1614610282576040517f08c379a000000000000000000000000000000000000000000000000000000000815260040161027990610c5a565b60405180910390fd5b826002600084815260200190815260200160002060006101000a81548173ffffffffffffffffffffffffffffffffffffffff021916908373ffffffffffffffffffffffffffffffffffffffff160217905550818373ffffffffffffffffffffffffffffffffffffffff168273ffffffffffffffffffffffffffffffffffffffff167f8c5be1e5ebec7d5bd14f71427d1e84f3dd0314c0f7b2291e5b200ac8c7c3b92560405160405180910390a4505050565b6000600380549050905090565b61034b3382610628565b61035457600080fd5b61035f8383836106b7565b505050565b6000600560008473ffffffffffffffffffffffffffffffffffffffff1673ffffffffffffffffffffffffffffffffffffffff1681526020019081526020016000208054905082106103ea576040517f08c379a00000000000000000000000000000000000000000000000000000000081526004016103e190610cc6565b60405180910390fd5b600560008473ffffffffffffffffffffffffffffffffffffffff1673ffffffffffffffffffffffffffffffffffffffff168152602001908152602001600020828154811061043b5761043a610ce6565b5b9060005260206000200154905092915050565b6000610458610334565b8210610499576040517f08c379a000000000000000000000000000000000000000000000000000000000815260040161049090610cc6565b60405180910390fd5b600382815481106104ad576104ac610ce6565b5b90600052602060002001549050919050565b60008060008084815260200190815260200160002060009054906101000a900473ffffffffffffffffffffffffffffffffffffffff169050600073ffffffffffffffffffffffffffffffffffffffff168173ffffffffffffffffffffffffffffffffffffffff161415610567576040517f08c379a000000000000000000000000000000000000000000000000000000000815260040161055e90610d61565b60405180910390fd5b80915050919050565b60008073ffffffffffffffffffffffffffffffffffffffff168273ffffffffffffffffffffffffffffffffffffffff1614156105e1576040517f08c379a00000000000000000000000000000000000000000000000000000000081526004016105d890610d61565b60405180910390fd5b600160008373ffffffffffffffffffffffffffffffffffffffff1673ffffffffffffffffffffffffffffffffffffffff168152602001908152602001600020549050919050565b6000610633826108fa565b610672576040517f08c379a000000000000000000000000000000000000000000000000000000000815260040161066990610dcd565b60405180910390fd5b600061067d836104bf565b90508073ffffffffffffffffffffffffffffffffffffffff168473ffffffffffffffffffffffffffffffffffffffff161491505092915050565b600073ffffffffffffffffffffffffffffffffffffffff168273ffffffffffffffffffffffffffffffffffffffff161415610727576040517f08c379a000000000000000000000000000000000000000000000000000000000815260040161071e90610e5f565b60405180910390fd5b8273ffffffffffffffffffffffffffffffffffffffff16610747826104bf565b73ffffffffffffffffffffffffffffffffffffffff161461079d576040517f08c379a000000000000000000000000000000000000000000000000000000000815260040161079490610ef1565b60405180910390fd5b60018060008573ffffffffffffffffffffffffffffffffffffffff1673ffffffffffffffffffffffffffffffffffffffff16815260200190815260200160002060008282546107ec9190610f40565b9250508190555060018060008473ffffffffffffffffffffffffffffffffffffffff1673ffffffffffffffffffffffffffffffffffffffff16815260200190815260200160002060008282546108429190610f74565b925050819055508160008083815260200190815260200160002060006101000a81548173ffffffffffffffffffffffffffffffffffffffff021916908373ffffffffffffffffffffffffffffffffffffffff160217905550808273ffffffffffffffffffffffffffffffffffffffff168473ffffffffffffffffffffffffffffffffffffffff167fddf252ad1be2c89b69c2b068fc378daa952ba7f163c4a11628f55a4df523b3ef60405160405180910390a4505050565b60008060008084815260200190815260200160002060009054906101000a900473ffffffffffffffffffffffffffffffffffffffff169050600073ffffffffffffffffffffffffffffffffffffffff168173ffffffffffffffffffffffffffffffffffffffff161415915050919050565b600080fd5b600073ffffffffffffffffffffffffffffffffffffffff82169050919050565b600061099b82610970565b9050919050565b6109ab81610990565b81146109b657600080fd5b50565b6000813590506109c8816109a2565b92915050565b6000819050919050565b6109e1816109ce565b81146109ec57600080fd5b50565b6000813590506109fe816109d8565b92915050565b60008060408385031215610a1b57610a1a61096b565b5b6000610a29858286016109b9565b9250506020610a3a858286016109ef565b9150509250929050565b610a4d816109ce565b82525050565b6000602082019050610a686000830184610a44565b92915050565b600080600060608486031215610a8757610a8661096b565b5b6000610a95868287016109b9565b9350506020610aa6868287016109b9565b9250506040610ab7868287016109ef565b9150509250925092565b600060208284031215610ad757610ad661096b565b5b6000610ae5848285016109ef565b91505092915050565b610af781610990565b82525050565b6000602082019050610b126000830184610aee565b92915050565b600060208284031215610b2e57610b2d61096b565b5b6000610b3c848285016109b9565b91505092915050565b600082825260208201905092915050565b7f4572726f72202d206170726f626163696f6e20616c2070726f7069657461726960008201527f6f2061637475616c000000000000000000000000000000000000000000000000602082015250565b6000610bb2602883610b45565b9150610bbd82610b56565b604082019050919050565b60006020820190508181036000830152610be181610ba5565b9050919050565b7f4c6120706572736f6e6120717565206c6c616d612061637475616c6d656e746560008201527f20646562652073657220656c2070726f706965746172696f0000000000000000602082015250565b6000610c44603883610b45565b9150610c4f82610be8565b604082019050919050565b60006020820190508181036000830152610c7381610c37565b9050919050565b7f496e646578206f7574206f6620626f756e647300000000000000000000000000600082015250565b6000610cb0601383610b45565b9150610cbb82610c7a565b602082019050919050565b60006020820190508181036000830152610cdf81610ca3565b9050919050565b7f4e487b7100000000000000000000000000000000000000000000000000000000600052603260045260246000fd5b7f4c6120446972656363696f6e206573746120656e204365726f00000000000000600082015250565b6000610d4b601983610b45565b9150610d5682610d15565b602082019050919050565b60006020820190508181036000830152610d7a81610d3e565b9050919050565b7f456c20546f6b656e206e6f206578697374650000000000000000000000000000600082015250565b6000610db7601283610b45565b9150610dc282610d81565b602082019050919050565b60006020820190508181036000830152610de681610daa565b9050919050565b7f4572726f72202d20455243373231205452414e6649455245204120554e41204460008201527f4952454343494f4e204345524f00000000000000000000000000000000000000602082015250565b6000610e49602d83610b45565b9150610e5482610ded565b604082019050919050565b60006020820190508181036000830152610e7881610e3c565b9050919050565b7f534520455354412054524154414e444f204445205452414e464552495220412060008201527f554e41204944524543494f4e204e4f20504f5250494554415249412100000000602082015250565b6000610edb603c83610b45565b9150610ee682610e7f565b604082019050919050565b60006020820190508181036000830152610f0a81610ece565b9050919050565b7f4e487b7100000000000000000000000000000000000000000000000000000000600052601160045260246000fd5b6000610f4b826109ce565b9150610f56836109ce565b925082821015610f6957610f68610f11565b5b828203905092915050565b6000610f7f826109ce565b9150610f8a836109ce565b9250827fffffffffffffffffffffffffffffffffffffffffffffffffffffffffffffffff03821115610fbf57610fbe610f11565b5b82820190509291505056fea2646970667358221220ce9568d6bcba0a5ecdfd9d9545d3e1db669ca8e94d41256503527218dd75178464736f6c634300080a0033",
  "immutableReferences": {},
  "source": "// SPDX-License-Identifier: MIT \r\npragma solidity ^0.8.10;\r\n\r\nimport './ERC721.sol';\r\n\r\ncontract ERC721Enumerable is ERC721 {\r\n\r\n    uint256[] private _allTokens;\r\n\r\n    // Mapa para identificar la posicin del token en la matriz\r\n    mapping(uint256 => uint256) private _allTokensIndex;\r\n\r\n    // Mapa del propietario a la lista de todos los tokensId que el propietario tiene\r\n    mapping(address => uint256[]) private _ownedTokens;\r\n\r\n    // Mapa del TokenId al ndice de la lista de tokens del propietario\r\n    mapping(uint256 => uint256) private _ownedTokensIndex;\r\n\r\n\r\n    // Agregar tokens a la matriz _allTokens y actualizar el ndice del token\r\n    function _addTokensToAllTokenEnumeration(uint256 tokenId) private {\r\n        _allTokensIndex[tokenId] = _allTokens.length;\r\n        _allTokens.push(tokenId);\r\n    }\r\n\r\n    // Agregar tokens al mapa del propietario y actualizar el ndice del token\r\n    function _addTokensToOwnerEnumeration(address to, uint256 tokenId) private {\r\n        _ownedTokens[to].push(tokenId);\r\n        _ownedTokensIndex[tokenId] = _ownedTokens[to].length - 1;\r\n    }\r\n\r\n    function _mint(address to, uint256 tokenId) internal override(ERC721) {\r\n        super._mint(to, tokenId);\r\n        // Agregar tokens al propietario y a la lista total de tokens\r\n        _addTokensToOwnerEnumeration(to, tokenId);\r\n        _addTokensToAllTokenEnumeration(tokenId);\r\n    }\r\n\r\n    //Retornar token por Indice\r\n    function tokenByIndex(uint256 index) public view returns(uint256) {\r\n        require(index < totalSupply(), \"Index out of bounds\");\r\n        return _allTokens[index];\r\n    }\r\n\r\n\r\n    function tokenOfOwnerByIndex(address owner, uint256 index) external view returns (uint256) {\r\n        require(index < _ownedTokens[owner].length, \"Index out of bounds\");\r\n        return _ownedTokens[owner][index];\r\n    }\r\n\r\n     function totalSupply() public  view returns (uint256) {\r\n        return _allTokens.length;\r\n    }\r\n}\r\n",
  "sourcePath": "C:\\Users\\Luis\\Documents\\Ticongle\\Blockchain\\tokenmall\\src\\contracts\\ERC721Enumerable.sol",
  "compiler": {
    "name": "solc",
    "version": "0.8.10+commit.fc410830.Emscripten.clang"
  },
  "schemaVersion": "3.4.16",
  "updatedAt": "2023-10-12T21:36:01.636Z",
  "devdoc": {
    "kind": "dev",
    "methods": {},
    "version": 1
  },
  "userdoc": {
    "kind": "user",
    "methods": {},
    "version": 1
  }
}