{
  "contractName": "ERC721Enumerable",
  "abi": [
    {
      "anonymous": false,
      "inputs": [
        {
          "indexed": true,
          "internalType": "address",
          "name": "from",
          "type": "address"
        },
        {
          "indexed": true,
          "internalType": "address",
          "name": "to",
          "type": "address"
        },
        {
          "indexed": true,
          "internalType": "uint256",
          "name": "tokenId",
          "type": "uint256"
        }
      ],
      "name": "Transfer",
      "type": "event"
    },
    {
      "inputs": [
        {
          "internalType": "address",
          "name": "_owner",
          "type": "address"
        }
      ],
      "name": "balanceOf",
      "outputs": [
        {
          "internalType": "uint256",
          "name": "",
          "type": "uint256"
        }
      ],
      "stateMutability": "view",
      "type": "function"
    },
    {
      "inputs": [
        {
          "internalType": "uint256",
          "name": "_tokenId",
          "type": "uint256"
        }
      ],
      "name": "ownerOf",
      "outputs": [
        {
          "internalType": "address",
          "name": "",
          "type": "address"
        }
      ],
      "stateMutability": "view",
      "type": "function"
    },
    {
      "inputs": [
        {
          "internalType": "uint256",
          "name": "index",
          "type": "uint256"
        }
      ],
      "name": "tokenByIndex",
      "outputs": [
        {
          "internalType": "uint256",
          "name": "",
          "type": "uint256"
        }
      ],
      "stateMutability": "view",
      "type": "function"
    },
    {
      "inputs": [
        {
          "internalType": "address",
          "name": "owner",
          "type": "address"
        },
        {
          "internalType": "uint256",
          "name": "index",
          "type": "uint256"
        }
      ],
      "name": "tokenOfOwnerByIndex",
      "outputs": [
        {
          "internalType": "uint256",
          "name": "",
          "type": "uint256"
        }
      ],
      "stateMutability": "view",
      "type": "function"
    },
    {
      "inputs": [],
      "name": "totalSupply",
      "outputs": [
        {
          "internalType": "uint256",
          "name": "",
          "type": "uint256"
        }
      ],
      "stateMutability": "view",
      "type": "function"
    }
  ],
  "bytecode": "0x608060405234801561001057600080fd5b506106e0806100206000396000f3fe608060405234801561001057600080fd5b50600436106100575760003560e01c806318160ddd1461005c5780632f745c591461007a5780634f6ccce7146100aa5780636352211e146100da57806370a082311461010a575b600080fd5b61006461013a565b6040516100719190610424565b60405180910390f35b610094600480360381019061008f91906104ce565b610147565b6040516100a19190610424565b60405180910390f35b6100c460048036038101906100bf919061050e565b610231565b6040516100d19190610424565b60405180910390f35b6100f460048036038101906100ef919061050e565b6102a2565b604051610101919061054a565b60405180910390f35b610124600480360381019061011f9190610565565b610353565b6040516101319190610424565b60405180910390f35b6000600280549050905090565b6000600460008473ffffffffffffffffffffffffffffffffffffffff1673ffffffffffffffffffffffffffffffffffffffff1681526020019081526020016000208054905082106101cd576040517f08c379a00000000000000000000000000000000000000000000000000000000081526004016101c4906105ef565b60405180910390fd5b600460008473ffffffffffffffffffffffffffffffffffffffff1673ffffffffffffffffffffffffffffffffffffffff168152602001908152602001600020828154811061021e5761021d61060f565b5b9060005260206000200154905092915050565b600061023b61013a565b821061027c576040517f08c379a0000000000000000000000000000000000000000000000000000000008152600401610273906105ef565b60405180910390fd5b600282815481106102905761028f61060f565b5b90600052602060002001549050919050565b60008060008084815260200190815260200160002060009054906101000a900473ffffffffffffffffffffffffffffffffffffffff169050600073ffffffffffffffffffffffffffffffffffffffff168173ffffffffffffffffffffffffffffffffffffffff16141561034a576040517f08c379a00000000000000000000000000000000000000000000000000000000081526004016103419061068a565b60405180910390fd5b80915050919050565b60008073ffffffffffffffffffffffffffffffffffffffff168273ffffffffffffffffffffffffffffffffffffffff1614156103c4576040517f08c379a00000000000000000000000000000000000000000000000000000000081526004016103bb9061068a565b60405180910390fd5b600160008373ffffffffffffffffffffffffffffffffffffffff1673ffffffffffffffffffffffffffffffffffffffff168152602001908152602001600020549050919050565b6000819050919050565b61041e8161040b565b82525050565b60006020820190506104396000830184610415565b92915050565b600080fd5b600073ffffffffffffffffffffffffffffffffffffffff82169050919050565b600061046f82610444565b9050919050565b61047f81610464565b811461048a57600080fd5b50565b60008135905061049c81610476565b92915050565b6104ab8161040b565b81146104b657600080fd5b50565b6000813590506104c8816104a2565b92915050565b600080604083850312156104e5576104e461043f565b5b60006104f38582860161048d565b9250506020610504858286016104b9565b9150509250929050565b6000602082840312156105245761052361043f565b5b6000610532848285016104b9565b91505092915050565b61054481610464565b82525050565b600060208201905061055f600083018461053b565b92915050565b60006020828403121561057b5761057a61043f565b5b60006105898482850161048d565b91505092915050565b600082825260208201905092915050565b7f496e646578206f7574206f6620626f756e647300000000000000000000000000600082015250565b60006105d9601383610592565b91506105e4826105a3565b602082019050919050565b60006020820190508181036000830152610608816105cc565b9050919050565b7f4e487b7100000000000000000000000000000000000000000000000000000000600052603260045260246000fd5b7f4c6120446972656363696f6e206573746120656e204365726f00000000000000600082015250565b6000610674601983610592565b915061067f8261063e565b602082019050919050565b600060208201905081810360008301526106a381610667565b905091905056fea26469706673582212205cdba230343cb1146a8fcb6d03e59c71da818068217c1b3efb7a4ddc8c91ac2064736f6c634300080a0033",
  "immutableReferences": {},
  "source": "// SPDX-License-Identifier: MIT \r\npragma solidity ^0.8.10;\r\n\r\nimport './ERC721.sol';\r\n\r\ncontract ERC721Enumerable is ERC721 {\r\n\r\n    uint256[] private _allTokens;\r\n\r\n    // Mapa para identificar la posicin del token en la matriz\r\n    mapping(uint256 => uint256) private _allTokensIndex;\r\n\r\n    // Mapa del propietario a la lista de todos los tokensId que el propietario tiene\r\n    mapping(address => uint256[]) private _ownedTokens;\r\n\r\n    // Mapa del TokenId al ndice de la lista de tokens del propietario\r\n    mapping(uint256 => uint256) private _ownedTokensIndex;\r\n\r\n\r\n    // Agregar tokens a la matriz _allTokens y actualizar el ndice del token\r\n    function _addTokensToAllTokenEnumeration(uint256 tokenId) private {\r\n        _allTokensIndex[tokenId] = _allTokens.length;\r\n        _allTokens.push(tokenId);\r\n    }\r\n\r\n    // Agregar tokens al mapa del propietario y actualizar el ndice del token\r\n    function _addTokensToOwnerEnumeration(address to, uint256 tokenId) private {\r\n        _ownedTokens[to].push(tokenId);\r\n        _ownedTokensIndex[tokenId] = _ownedTokens[to].length - 1;\r\n    }\r\n\r\n    function _mint(address to, uint256 tokenId) internal override(ERC721) {\r\n        super._mint(to, tokenId);\r\n        // Agregar tokens al propietario y a la lista total de tokens\r\n        _addTokensToOwnerEnumeration(to, tokenId);\r\n        _addTokensToAllTokenEnumeration(tokenId);\r\n    }\r\n\r\n    //Retornar token por Indice\r\n    function tokenByIndex(uint256 index) public view returns(uint256) {\r\n        require(index < totalSupply(), \"Index out of bounds\");\r\n        return _allTokens[index];\r\n    }\r\n\r\n\r\n    function tokenOfOwnerByIndex(address owner, uint256 index) external view returns (uint256) {\r\n        require(index < _ownedTokens[owner].length, \"Index out of bounds\");\r\n        return _ownedTokens[owner][index];\r\n    }\r\n\r\n     function totalSupply() public  view returns (uint256) {\r\n        return _allTokens.length;\r\n    }\r\n}\r\n",
  "sourcePath": "C:\\Users\\Rudy Griffin\\Desktop\\ws\\temp\\clonado\\tokenizacion\\src\\contracts\\ERC721Enumerable.sol",
  "compiler": {
    "name": "solc",
    "version": "0.8.10+commit.fc410830.Emscripten.clang"
  },
  "schemaVersion": "3.4.16",
  "updatedAt": "2023-10-11T09:38:45.285Z",
  "devdoc": {
    "kind": "dev",
    "methods": {},
    "version": 1
  },
  "userdoc": {
    "kind": "user",
    "methods": {},
    "version": 1
  }
}