{
  "contractName": "ERC721",
  "abi": [
    {
      "anonymous": false,
      "inputs": [
        {
          "indexed": true,
          "internalType": "address",
          "name": "from",
          "type": "address"
        },
        {
          "indexed": true,
          "internalType": "address",
          "name": "to",
          "type": "address"
        },
        {
          "indexed": true,
          "internalType": "uint256",
          "name": "tokenId",
          "type": "uint256"
        }
      ],
      "name": "Transfer",
      "type": "event"
    },
    {
      "inputs": [
        {
          "internalType": "address",
          "name": "_owner",
          "type": "address"
        }
      ],
      "name": "balanceOf",
      "outputs": [
        {
          "internalType": "uint256",
          "name": "",
          "type": "uint256"
        }
      ],
      "stateMutability": "view",
      "type": "function"
    },
    {
      "inputs": [
        {
          "internalType": "uint256",
          "name": "_tokenId",
          "type": "uint256"
        }
      ],
      "name": "ownerOf",
      "outputs": [
        {
          "internalType": "address",
          "name": "",
          "type": "address"
        }
      ],
      "stateMutability": "view",
      "type": "function"
    }
  ],
  "bytecode": "0x608060405234801561001057600080fd5b506103fe806100206000396000f3fe608060405234801561001057600080fd5b50600436106100365760003560e01c80636352211e1461003b57806370a082311461006b575b600080fd5b6100556004803603810190610050919061023f565b61009b565b60405161006291906102ad565b60405180910390f35b610085600480360381019061008091906102f4565b61014c565b6040516100929190610330565b60405180910390f35b60008060008084815260200190815260200160002060009054906101000a900473ffffffffffffffffffffffffffffffffffffffff169050600073ffffffffffffffffffffffffffffffffffffffff168173ffffffffffffffffffffffffffffffffffffffff161415610143576040517f08c379a000000000000000000000000000000000000000000000000000000000815260040161013a906103a8565b60405180910390fd5b80915050919050565b60008073ffffffffffffffffffffffffffffffffffffffff168273ffffffffffffffffffffffffffffffffffffffff1614156101bd576040517f08c379a00000000000000000000000000000000000000000000000000000000081526004016101b4906103a8565b60405180910390fd5b600160008373ffffffffffffffffffffffffffffffffffffffff1673ffffffffffffffffffffffffffffffffffffffff168152602001908152602001600020549050919050565b600080fd5b6000819050919050565b61021c81610209565b811461022757600080fd5b50565b60008135905061023981610213565b92915050565b60006020828403121561025557610254610204565b5b60006102638482850161022a565b91505092915050565b600073ffffffffffffffffffffffffffffffffffffffff82169050919050565b60006102978261026c565b9050919050565b6102a78161028c565b82525050565b60006020820190506102c2600083018461029e565b92915050565b6102d18161028c565b81146102dc57600080fd5b50565b6000813590506102ee816102c8565b92915050565b60006020828403121561030a57610309610204565b5b6000610318848285016102df565b91505092915050565b61032a81610209565b82525050565b60006020820190506103456000830184610321565b92915050565b600082825260208201905092915050565b7f4c6120446972656363696f6e206573746120656e204365726f00000000000000600082015250565b600061039260198361034b565b915061039d8261035c565b602082019050919050565b600060208201905081810360008301526103c181610385565b905091905056fea2646970667358221220502f6f74819287873bc7726f464b0cf28c1badac07085e328b3a4ae2543a157a64736f6c634300080a0033",
  "immutableReferences": {},
  "source": "// SPDX-License-Identifier: MIT \r\npragma solidity ^0.8.10;\r\n\r\n/*\r\n Se crea la funcion para mintear tokens\r\n    1. El NFT debe apuntar a una direccion\r\n    2. Se debe mantener un registro de los IDS de los TOKENS\r\n    3. se debe mantener un registro de los propietarios (direciones de wallets) de los tokens Id\r\n    4. Cuantos tokens tiene un propietario (Direccion)\r\n    5. Se crea unevento que haga un registro de tranferencia - direccion del contrato donde \r\n       se esta acuando (Minteo) el Id.\r\n*/\r\n\r\ncontract ERC721 {\r\n\r\n    //SE CREA EL EVENTO DE TRANFERENCIA\r\n    event Transfer (\r\n        address indexed from,\r\n        address indexed to,\r\n        uint256 indexed tokenId\r\n    );\r\n  \r\n    mapping(uint256 => address) private _tokenOwner;\r\n\r\n    mapping(address => uint256) private _OwnedTokenCount;\r\n\r\n    function balanceOf(address _owner) public view returns (uint256) {\r\n        require (_owner != address(0), 'La Direccion esta en Cero');\r\n        return _OwnedTokenCount[_owner];\r\n    }\r\n\r\n    function ownerOf(uint256 _tokenId) external view returns (address) {\r\n        address owner = _tokenOwner [_tokenId];\r\n        require (owner != address(0), 'La Direccion esta en Cero');\r\n        return owner;\r\n    }\r\n\r\n    //\r\n\r\n    function _exists(uint256 tokenId) internal view returns(bool) {\r\n        address owner = _tokenOwner[tokenId];\r\n\r\n        return owner != address(0);\r\n    }\r\n\r\n    function _mint(address to, uint256 tokenId) internal virtual {\r\n        //revisaremos que el address no sea cero!\r\n        require(to != address(0), 'ERC721 DIRECCION DE ACUCCION ES CERO');\r\n\r\n        //TokenID debe no existir anteriomente\r\n        require(!_exists(tokenId), 'ERC721 YA EXISTE');\r\n        \r\n        //Apuntamos la direccion del propietario\r\n        _tokenOwner[tokenId] = to;\r\n\r\n        // Cuantos tokens tiene ese propietario (Direccion) ?\r\n        _OwnedTokenCount[to] += 1;\r\n\r\n        // se emite el vento de tranferencia\r\n        emit Transfer(address(0), to, tokenId);\r\n    }\r\n\r\n\r\n\r\n}",
  "sourcePath": "C:\\Users\\Rudy Griffin\\Desktop\\ws\\temp\\clonado\\tokenizacion\\src\\contracts\\ERC721.sol",
  "compiler": {
    "name": "solc",
    "version": "0.8.10+commit.fc410830.Emscripten.clang"
  },
  "schemaVersion": "3.4.16",
  "updatedAt": "2023-10-11T09:38:45.280Z",
  "devdoc": {
    "kind": "dev",
    "methods": {},
    "version": 1
  },
  "userdoc": {
    "kind": "user",
    "methods": {},
    "version": 1
  }
}