{
  "contractName": "TokenMall",
  "abi": [
    {
      "inputs": [],
      "stateMutability": "nonpayable",
      "type": "constructor"
    },
    {
      "anonymous": false,
      "inputs": [
        {
          "indexed": true,
          "internalType": "address",
          "name": "_owner",
          "type": "address"
        },
        {
          "indexed": true,
          "internalType": "address",
          "name": "_approved",
          "type": "address"
        },
        {
          "indexed": true,
          "internalType": "uint256",
          "name": "_tokenId",
          "type": "uint256"
        }
      ],
      "name": "Approval",
      "type": "event"
    },
    {
      "anonymous": false,
      "inputs": [
        {
          "indexed": true,
          "internalType": "address",
          "name": "from",
          "type": "address"
        },
        {
          "indexed": true,
          "internalType": "address",
          "name": "to",
          "type": "address"
        },
        {
          "indexed": true,
          "internalType": "uint256",
          "name": "tokenId",
          "type": "uint256"
        }
      ],
      "name": "Transfer",
      "type": "event"
    },
    {
      "inputs": [
        {
          "internalType": "uint256",
          "name": "",
          "type": "uint256"
        }
      ],
      "name": "TokenMallNFT",
      "outputs": [
        {
          "internalType": "string",
          "name": "",
          "type": "string"
        }
      ],
      "stateMutability": "view",
      "type": "function",
      "constant": true
    },
    {
      "inputs": [
        {
          "internalType": "address",
          "name": "_to",
          "type": "address"
        },
        {
          "internalType": "uint256",
          "name": "tokenId",
          "type": "uint256"
        }
      ],
      "name": "approve",
      "outputs": [],
      "stateMutability": "nonpayable",
      "type": "function"
    },
    {
      "inputs": [
        {
          "internalType": "address",
          "name": "_owner",
          "type": "address"
        }
      ],
      "name": "balanceOf",
      "outputs": [
        {
          "internalType": "uint256",
          "name": "",
          "type": "uint256"
        }
      ],
      "stateMutability": "view",
      "type": "function",
      "constant": true
    },
    {
      "inputs": [],
      "name": "name",
      "outputs": [
        {
          "internalType": "string",
          "name": "",
          "type": "string"
        }
      ],
      "stateMutability": "view",
      "type": "function",
      "constant": true
    },
    {
      "inputs": [
        {
          "internalType": "uint256",
          "name": "_tokenId",
          "type": "uint256"
        }
      ],
      "name": "ownerOf",
      "outputs": [
        {
          "internalType": "address",
          "name": "",
          "type": "address"
        }
      ],
      "stateMutability": "view",
      "type": "function",
      "constant": true
    },
    {
      "inputs": [],
      "name": "symbol",
      "outputs": [
        {
          "internalType": "string",
          "name": "",
          "type": "string"
        }
      ],
      "stateMutability": "view",
      "type": "function",
      "constant": true
    },
    {
      "inputs": [
        {
          "internalType": "uint256",
          "name": "index",
          "type": "uint256"
        }
      ],
      "name": "tokenByIndex",
      "outputs": [
        {
          "internalType": "uint256",
          "name": "",
          "type": "uint256"
        }
      ],
      "stateMutability": "view",
      "type": "function",
      "constant": true
    },
    {
      "inputs": [
        {
          "internalType": "address",
          "name": "owner",
          "type": "address"
        },
        {
          "internalType": "uint256",
          "name": "index",
          "type": "uint256"
        }
      ],
      "name": "tokenOfOwnerByIndex",
      "outputs": [
        {
          "internalType": "uint256",
          "name": "",
          "type": "uint256"
        }
      ],
      "stateMutability": "view",
      "type": "function",
      "constant": true
    },
    {
      "inputs": [],
      "name": "totalSupply",
      "outputs": [
        {
          "internalType": "uint256",
          "name": "",
          "type": "uint256"
        }
      ],
      "stateMutability": "view",
      "type": "function",
      "constant": true
    },
    {
      "inputs": [
        {
          "internalType": "address",
          "name": "_from",
          "type": "address"
        },
        {
          "internalType": "address",
          "name": "_to",
          "type": "address"
        },
        {
          "internalType": "uint256",
          "name": "_tokenId",
          "type": "uint256"
        }
      ],
      "name": "transferFrom",
      "outputs": [],
      "stateMutability": "nonpayable",
      "type": "function"
    },
    {
      "inputs": [
        {
          "internalType": "string",
          "name": "_tokenmall",
          "type": "string"
        }
      ],
      "name": "mint",
      "outputs": [],
      "stateMutability": "nonpayable",
      "type": "function"
    }
  ],
  "bytecode": "0x60806040523480156200001157600080fd5b506040518060400160405280600981526020017f546f6b656e4d616c6c00000000000000000000000000000000000000000000008152506040518060400160405280600a81526020017f5365706f6c6961455448000000000000000000000000000000000000000000008152508181816000908051906020019062000098929190620000bc565b508060019080519060200190620000b1929190620000bc565b5050505050620001d1565b828054620000ca906200019b565b90600052602060002090601f016020900481019282620000ee57600085556200013a565b82601f106200010957805160ff19168380011785556200013a565b828001600101855582156200013a579182015b82811115620001395782518255916020019190600101906200011c565b5b5090506200014991906200014d565b5090565b5b80821115620001685760008160009055506001016200014e565b5090565b7f4e487b7100000000000000000000000000000000000000000000000000000000600052602260045260246000fd5b60006002820490506001821680620001b457607f821691505b60208210811415620001cb57620001ca6200016c565b5b50919050565b611b8080620001e16000396000f3fe608060405234801561001057600080fd5b50600436106100a95760003560e01c80634f6ccce7116100715780634f6ccce7146101525780636352211e146101825780636f2b09a1146101b257806370a08231146101e257806395d89b4114610212578063d85d3d2714610230576100a9565b806306fdde03146100ae578063095ea7b3146100cc57806318160ddd146100e857806323b872dd146101065780632f745c5914610122575b600080fd5b6100b661024c565b6040516100c3919061112f565b60405180910390f35b6100e660048036038101906100e191906111f9565b6102de565b005b6100f061047a565b6040516100fd9190611248565b60405180910390f35b610120600480360381019061011b9190611263565b610487565b005b61013c600480360381019061013791906111f9565b6104aa565b6040516101499190611248565b60405180910390f35b61016c600480360381019061016791906112b6565b610594565b6040516101799190611248565b60405180910390f35b61019c600480360381019061019791906112b6565b610605565b6040516101a991906112f2565b60405180910390f35b6101cc60048036038101906101c791906112b6565b6106b7565b6040516101d9919061112f565b60405180910390f35b6101fc60048036038101906101f7919061130d565b610763565b6040516102099190611248565b60405180910390f35b61021a61081b565b604051610227919061112f565b60405180910390f35b61024a6004803603810190610245919061146f565b6108ad565b005b60606000805461025b906114e7565b80601f0160208091040260200160405190810160405280929190818152602001828054610287906114e7565b80156102d45780601f106102a9576101008083540402835291602001916102d4565b820191906000526020600020905b8154815290600101906020018083116102b757829003601f168201915b5050505050905090565b60006102e982610605565b90508073ffffffffffffffffffffffffffffffffffffffff168373ffffffffffffffffffffffffffffffffffffffff16141561035a576040517f08c379a00000000000000000000000000000000000000000000000000000000081526004016103519061158b565b60405180910390fd5b8073ffffffffffffffffffffffffffffffffffffffff163373ffffffffffffffffffffffffffffffffffffffff16146103c8576040517f08c379a00000000000000000000000000000000000000000000000000000000081526004016103bf9061161d565b60405180910390fd5b826004600084815260200190815260200160002060006101000a81548173ffffffffffffffffffffffffffffffffffffffff021916908373ffffffffffffffffffffffffffffffffffffffff160217905550818373ffffffffffffffffffffffffffffffffffffffff168273ffffffffffffffffffffffffffffffffffffffff167f8c5be1e5ebec7d5bd14f71427d1e84f3dd0314c0f7b2291e5b200ac8c7c3b92560405160405180910390a4505050565b6000600580549050905090565b61049133826109b0565b61049a57600080fd5b6104a5838383610a3f565b505050565b6000600760008473ffffffffffffffffffffffffffffffffffffffff1673ffffffffffffffffffffffffffffffffffffffff168152602001908152602001600020805490508210610530576040517f08c379a000000000000000000000000000000000000000000000000000000000815260040161052790611689565b60405180910390fd5b600760008473ffffffffffffffffffffffffffffffffffffffff1673ffffffffffffffffffffffffffffffffffffffff1681526020019081526020016000208281548110610581576105806116a9565b5b9060005260206000200154905092915050565b600061059e61047a565b82106105df576040517f08c379a00000000000000000000000000000000000000000000000000000000081526004016105d690611689565b60405180910390fd5b600582815481106105f3576105f26116a9565b5b90600052602060002001549050919050565b6000806002600084815260200190815260200160002060009054906101000a900473ffffffffffffffffffffffffffffffffffffffff169050600073ffffffffffffffffffffffffffffffffffffffff168173ffffffffffffffffffffffffffffffffffffffff1614156106ae576040517f08c379a00000000000000000000000000000000000000000000000000000000081526004016106a590611724565b60405180910390fd5b80915050919050565b600981815481106106c757600080fd5b9060005260206000200160009150905080546106e2906114e7565b80601f016020809104026020016040519081016040528092919081815260200182805461070e906114e7565b801561075b5780601f106107305761010080835404028352916020019161075b565b820191906000526020600020905b81548152906001019060200180831161073e57829003601f168201915b505050505081565b60008073ffffffffffffffffffffffffffffffffffffffff168273ffffffffffffffffffffffffffffffffffffffff1614156107d4576040517f08c379a00000000000000000000000000000000000000000000000000000000081526004016107cb90611724565b60405180910390fd5b600360008373ffffffffffffffffffffffffffffffffffffffff1673ffffffffffffffffffffffffffffffffffffffff168152602001908152602001600020549050919050565b60606001805461082a906114e7565b80601f0160208091040260200160405190810160405280929190818152602001828054610856906114e7565b80156108a35780601f10610878576101008083540402835291602001916108a3565b820191906000526020600020905b81548152906001019060200180831161088657829003601f168201915b5050505050905090565b600a816040516108bd9190611780565b908152602001604051809103902060009054906101000a900460ff1615610919576040517f08c379a0000000000000000000000000000000000000000000000000000000008152600401610910906117e3565b60405180910390fd5b600981908060018154018082558091505060019003906000526020600020016000909190919091509080519060200190610954929190610ff3565b50600060016009805490506109699190611832565b90506109753382610c85565b6001600a836040516109879190611780565b908152602001604051809103902060006101000a81548160ff0219169083151502179055505050565b60006109bb82610ca6565b6109fa576040517f08c379a00000000000000000000000000000000000000000000000000000000081526004016109f1906118b2565b60405180910390fd5b6000610a0583610605565b90508073ffffffffffffffffffffffffffffffffffffffff168473ffffffffffffffffffffffffffffffffffffffff161491505092915050565b600073ffffffffffffffffffffffffffffffffffffffff168273ffffffffffffffffffffffffffffffffffffffff161415610aaf576040517f08c379a0000000000000000000000000000000000000000000000000000000008152600401610aa690611944565b60405180910390fd5b8273ffffffffffffffffffffffffffffffffffffffff16610acf82610605565b73ffffffffffffffffffffffffffffffffffffffff1614610b25576040517f08c379a0000000000000000000000000000000000000000000000000000000008152600401610b1c906119d6565b60405180910390fd5b6001600360008573ffffffffffffffffffffffffffffffffffffffff1673ffffffffffffffffffffffffffffffffffffffff1681526020019081526020016000206000828254610b759190611832565b925050819055506001600360008473ffffffffffffffffffffffffffffffffffffffff1673ffffffffffffffffffffffffffffffffffffffff1681526020019081526020016000206000828254610bcc91906119f6565b92505081905550816002600083815260200190815260200160002060006101000a81548173ffffffffffffffffffffffffffffffffffffffff021916908373ffffffffffffffffffffffffffffffffffffffff160217905550808273ffffffffffffffffffffffffffffffffffffffff168473ffffffffffffffffffffffffffffffffffffffff167fddf252ad1be2c89b69c2b068fc378daa952ba7f163c4a11628f55a4df523b3ef60405160405180910390a4505050565b610c8f8282610d18565b610c998282610eda565b610ca281610faa565b5050565b6000806002600084815260200190815260200160002060009054906101000a900473ffffffffffffffffffffffffffffffffffffffff169050600073ffffffffffffffffffffffffffffffffffffffff168173ffffffffffffffffffffffffffffffffffffffff161415915050919050565b600073ffffffffffffffffffffffffffffffffffffffff168273ffffffffffffffffffffffffffffffffffffffff161415610d88576040517f08c379a0000000000000000000000000000000000000000000000000000000008152600401610d7f90611abe565b60405180910390fd5b610d9181610ca6565b15610dd1576040517f08c379a0000000000000000000000000000000000000000000000000000000008152600401610dc890611b2a565b60405180910390fd5b816002600083815260200190815260200160002060006101000a81548173ffffffffffffffffffffffffffffffffffffffff021916908373ffffffffffffffffffffffffffffffffffffffff1602179055506001600360008473ffffffffffffffffffffffffffffffffffffffff1673ffffffffffffffffffffffffffffffffffffffff1681526020019081526020016000206000828254610e7391906119f6565b92505081905550808273ffffffffffffffffffffffffffffffffffffffff16600073ffffffffffffffffffffffffffffffffffffffff167fddf252ad1be2c89b69c2b068fc378daa952ba7f163c4a11628f55a4df523b3ef60405160405180910390a45050565b600760008373ffffffffffffffffffffffffffffffffffffffff1673ffffffffffffffffffffffffffffffffffffffff1681526020019081526020016000208190806001815401808255809150506001900390600052602060002001600090919091909150556001600760008473ffffffffffffffffffffffffffffffffffffffff1673ffffffffffffffffffffffffffffffffffffffff16815260200190815260200160002080549050610f8f9190611832565b60086000838152602001908152602001600020819055505050565b6005805490506006600083815260200190815260200160002081905550600581908060018154018082558091505060019003906000526020600020016000909190919091505550565b828054610fff906114e7565b90600052602060002090601f0160209004810192826110215760008555611068565b82601f1061103a57805160ff1916838001178555611068565b82800160010185558215611068579182015b8281111561106757825182559160200191906001019061104c565b5b5090506110759190611079565b5090565b5b8082111561109257600081600090555060010161107a565b5090565b600081519050919050565b600082825260208201905092915050565b60005b838110156110d05780820151818401526020810190506110b5565b838111156110df576000848401525b50505050565b6000601f19601f8301169050919050565b600061110182611096565b61110b81856110a1565b935061111b8185602086016110b2565b611124816110e5565b840191505092915050565b6000602082019050818103600083015261114981846110f6565b905092915050565b6000604051905090565b600080fd5b600080fd5b600073ffffffffffffffffffffffffffffffffffffffff82169050919050565b600061119082611165565b9050919050565b6111a081611185565b81146111ab57600080fd5b50565b6000813590506111bd81611197565b92915050565b6000819050919050565b6111d6816111c3565b81146111e157600080fd5b50565b6000813590506111f3816111cd565b92915050565b600080604083850312156112105761120f61115b565b5b600061121e858286016111ae565b925050602061122f858286016111e4565b9150509250929050565b611242816111c3565b82525050565b600060208201905061125d6000830184611239565b92915050565b60008060006060848603121561127c5761127b61115b565b5b600061128a868287016111ae565b935050602061129b868287016111ae565b92505060406112ac868287016111e4565b9150509250925092565b6000602082840312156112cc576112cb61115b565b5b60006112da848285016111e4565b91505092915050565b6112ec81611185565b82525050565b600060208201905061130760008301846112e3565b92915050565b6000602082840312156113235761132261115b565b5b6000611331848285016111ae565b91505092915050565b600080fd5b600080fd5b7f4e487b7100000000000000000000000000000000000000000000000000000000600052604160045260246000fd5b61137c826110e5565b810181811067ffffffffffffffff8211171561139b5761139a611344565b5b80604052505050565b60006113ae611151565b90506113ba8282611373565b919050565b600067ffffffffffffffff8211156113da576113d9611344565b5b6113e3826110e5565b9050602081019050919050565b82818337600083830152505050565b600061141261140d846113bf565b6113a4565b90508281526020810184848401111561142e5761142d61133f565b5b6114398482856113f0565b509392505050565b600082601f8301126114565761145561133a565b5b81356114668482602086016113ff565b91505092915050565b6000602082840312156114855761148461115b565b5b600082013567ffffffffffffffff8111156114a3576114a2611160565b5b6114af84828501611441565b91505092915050565b7f4e487b7100000000000000000000000000000000000000000000000000000000600052602260045260246000fd5b600060028204905060018216806114ff57607f821691505b60208210811415611513576115126114b8565b5b50919050565b7f4572726f72202d206170726f626163696f6e20616c2070726f7069657461726960008201527f6f2061637475616c000000000000000000000000000000000000000000000000602082015250565b60006115756028836110a1565b915061158082611519565b604082019050919050565b600060208201905081810360008301526115a481611568565b9050919050565b7f4c6120706572736f6e6120717565206c6c616d612061637475616c6d656e746560008201527f20646562652073657220656c2070726f706965746172696f0000000000000000602082015250565b60006116076038836110a1565b9150611612826115ab565b604082019050919050565b60006020820190508181036000830152611636816115fa565b9050919050565b7f496e646578206f7574206f6620626f756e647300000000000000000000000000600082015250565b60006116736013836110a1565b915061167e8261163d565b602082019050919050565b600060208201905081810360008301526116a281611666565b9050919050565b7f4e487b7100000000000000000000000000000000000000000000000000000000600052603260045260246000fd5b7f4c6120446972656363696f6e206573746120656e204365726f00000000000000600082015250565b600061170e6019836110a1565b9150611719826116d8565b602082019050919050565b6000602082019050818103600083015261173d81611701565b9050919050565b600081905092915050565b600061175a82611096565b6117648185611744565b93506117748185602086016110b2565b80840191505092915050565b600061178c828461174f565b915081905092915050565b7f4572726f72202d206573746520546f6b656e2079612065786973746500000000600082015250565b60006117cd601c836110a1565b91506117d882611797565b602082019050919050565b600060208201905081810360008301526117fc816117c0565b9050919050565b7f4e487b7100000000000000000000000000000000000000000000000000000000600052601160045260246000fd5b600061183d826111c3565b9150611848836111c3565b92508282101561185b5761185a611803565b5b828203905092915050565b7f456c20546f6b656e206e6f206578697374650000000000000000000000000000600082015250565b600061189c6012836110a1565b91506118a782611866565b602082019050919050565b600060208201905081810360008301526118cb8161188f565b9050919050565b7f4572726f72202d20455243373231205452414e6649455245204120554e41204460008201527f4952454343494f4e204345524f00000000000000000000000000000000000000602082015250565b600061192e602d836110a1565b9150611939826118d2565b604082019050919050565b6000602082019050818103600083015261195d81611921565b9050919050565b7f534520455354412054524154414e444f204445205452414e464552495220412060008201527f554e41204944524543494f4e204e4f20504f5250494554415249412100000000602082015250565b60006119c0603c836110a1565b91506119cb82611964565b604082019050919050565b600060208201905081810360008301526119ef816119b3565b9050919050565b6000611a01826111c3565b9150611a0c836111c3565b9250827fffffffffffffffffffffffffffffffffffffffffffffffffffffffffffffffff03821115611a4157611a40611803565b5b828201905092915050565b7f45524337323120444952454343494f4e204445204143554343494f4e2045532060008201527f4345524f00000000000000000000000000000000000000000000000000000000602082015250565b6000611aa86024836110a1565b9150611ab382611a4c565b604082019050919050565b60006020820190508181036000830152611ad781611a9b565b9050919050565b7f4552433732312059412045584953544500000000000000000000000000000000600082015250565b6000611b146010836110a1565b9150611b1f82611ade565b602082019050919050565b60006020820190508181036000830152611b4381611b07565b905091905056fea2646970667358221220592aa1981e2a1d171c59f678bfb44eec82e0838b42f3a059b4c65835df536b2e64736f6c634300080a0033",
  "immutableReferences": {},
  "source": "// SPDX-License-Identifier: MIT \r\npragma solidity ^0.8.10;\r\n\r\nimport './ERC721Connector.sol';\r\n\r\ncontract TokenMall is ERC721Connector {\r\n\r\n    //Matriz para guardar nuestros NFTs\r\n    string[] public TokenMallNFT;\r\n\r\n    mapping(string => bool) _TokenMallNFTExists;\r\n\r\n    function mint(string memory _tokenmall) public {\r\n\r\n        require(!_TokenMallNFTExists[_tokenmall], 'Error - este Token ya existe');\r\n\r\n        TokenMallNFT.push(_tokenmall);\r\n        uint _id = TokenMallNFT.length -1;\r\n\r\n        _mint(msg.sender, _id);\r\n\r\n        _TokenMallNFTExists[_tokenmall] = true;\r\n    }\r\n\r\n    constructor() ERC721Connector('TokenMall','SepoliaETH') {}\r\n\r\n}\r\n",
  "sourcePath": "C:\\Users\\Luis\\Documents\\Ticongle\\Blockchain\\tokenmall\\src\\contracts\\TokenMall.sol",
  "compiler": {
    "name": "solc",
    "version": "0.8.10+commit.fc410830.Emscripten.clang"
  },
  "schemaVersion": "3.4.16",
  "updatedAt": "2023-10-12T21:36:03.849Z",
  "networkType": "ethereum",
  "devdoc": {
    "kind": "dev",
    "methods": {},
    "version": 1
  },
  "userdoc": {
    "kind": "user",
    "methods": {},
    "version": 1
  }
}