{
  "contractName": "TokenMall",
  "abi": [
    {
      "inputs": [],
      "stateMutability": "nonpayable",
      "type": "constructor"
    },
    {
      "anonymous": false,
      "inputs": [
        {
          "indexed": true,
          "internalType": "address",
          "name": "_owner",
          "type": "address"
        },
        {
          "indexed": true,
          "internalType": "address",
          "name": "_approved",
          "type": "address"
        },
        {
          "indexed": true,
          "internalType": "uint256",
          "name": "_tokenId",
          "type": "uint256"
        }
      ],
      "name": "Approval",
      "type": "event"
    },
    {
      "anonymous": false,
      "inputs": [
        {
          "indexed": true,
          "internalType": "address",
          "name": "from",
          "type": "address"
        },
        {
          "indexed": true,
          "internalType": "address",
          "name": "to",
          "type": "address"
        },
        {
          "indexed": true,
          "internalType": "uint256",
          "name": "tokenId",
          "type": "uint256"
        }
      ],
      "name": "Transfer",
      "type": "event"
    },
    {
      "inputs": [
        {
          "internalType": "uint256",
          "name": "",
          "type": "uint256"
        }
      ],
      "name": "TokenMallNFT",
      "outputs": [
        {
          "internalType": "string",
          "name": "",
          "type": "string"
        }
      ],
      "stateMutability": "view",
      "type": "function",
      "constant": true
    },
    {
      "inputs": [
        {
          "internalType": "address",
          "name": "_to",
          "type": "address"
        },
        {
          "internalType": "uint256",
          "name": "tokenId",
          "type": "uint256"
        }
      ],
      "name": "approve",
      "outputs": [],
      "stateMutability": "nonpayable",
      "type": "function"
    },
    {
      "inputs": [
        {
          "internalType": "address",
          "name": "_owner",
          "type": "address"
        }
      ],
      "name": "balanceOf",
      "outputs": [
        {
          "internalType": "uint256",
          "name": "",
          "type": "uint256"
        }
      ],
      "stateMutability": "view",
      "type": "function",
      "constant": true
    },
    {
      "inputs": [],
      "name": "name",
      "outputs": [
        {
          "internalType": "string",
          "name": "",
          "type": "string"
        }
      ],
      "stateMutability": "view",
      "type": "function",
      "constant": true
    },
    {
      "inputs": [
        {
          "internalType": "uint256",
          "name": "_tokenId",
          "type": "uint256"
        }
      ],
      "name": "ownerOf",
      "outputs": [
        {
          "internalType": "address",
          "name": "",
          "type": "address"
        }
      ],
      "stateMutability": "view",
      "type": "function",
      "constant": true
    },
    {
      "inputs": [
        {
          "internalType": "bytes4",
          "name": "interfaceID",
          "type": "bytes4"
        }
      ],
      "name": "supportsInterface",
      "outputs": [
        {
          "internalType": "bool",
          "name": "",
          "type": "bool"
        }
      ],
      "stateMutability": "view",
      "type": "function",
      "constant": true
    },
    {
      "inputs": [],
      "name": "symbol",
      "outputs": [
        {
          "internalType": "string",
          "name": "",
          "type": "string"
        }
      ],
      "stateMutability": "view",
      "type": "function",
      "constant": true
    },
    {
      "inputs": [
        {
          "internalType": "uint256",
          "name": "index",
          "type": "uint256"
        }
      ],
      "name": "tokenByIndex",
      "outputs": [
        {
          "internalType": "uint256",
          "name": "",
          "type": "uint256"
        }
      ],
      "stateMutability": "view",
      "type": "function",
      "constant": true
    },
    {
      "inputs": [
        {
          "internalType": "address",
          "name": "owner",
          "type": "address"
        },
        {
          "internalType": "uint256",
          "name": "index",
          "type": "uint256"
        }
      ],
      "name": "tokenOfOwnerByIndex",
      "outputs": [
        {
          "internalType": "uint256",
          "name": "",
          "type": "uint256"
        }
      ],
      "stateMutability": "view",
      "type": "function",
      "constant": true
    },
    {
      "inputs": [],
      "name": "totalSupply",
      "outputs": [
        {
          "internalType": "uint256",
          "name": "",
          "type": "uint256"
        }
      ],
      "stateMutability": "view",
      "type": "function",
      "constant": true
    },
    {
      "inputs": [
        {
          "internalType": "address",
          "name": "_from",
          "type": "address"
        },
        {
          "internalType": "address",
          "name": "_to",
          "type": "address"
        },
        {
          "internalType": "uint256",
          "name": "_tokenId",
          "type": "uint256"
        }
      ],
      "name": "transferFrom",
      "outputs": [],
      "stateMutability": "nonpayable",
      "type": "function"
    },
    {
      "inputs": [
        {
          "internalType": "string",
          "name": "_tokenmall",
          "type": "string"
        }
      ],
      "name": "mint",
      "outputs": [],
      "stateMutability": "nonpayable",
      "type": "function"
    }
  ],
  "bytecode": "0x60806040523480156200001157600080fd5b506040518060400160405280600981526020017f546f6b656e4d616c6c00000000000000000000000000000000000000000000008152506040518060400160405280600a81526020017f5365706f6c6961455448000000000000000000000000000000000000000000008152508181620000b17f01ffc9a7a5cef8baa21ed3c5c0d7e23accb804b619e9333b597f47a0d84076e26200022a60201b60201c565b620001047f13b182f4c0e5b2efbac0efe6cf6d756c8b89f4b79c5707a043ed9ea740574ee97f7feaf19471f34a12a7eaf32d5f3090aa2260ea8624dc8a138e74e0bf0f623076186200022a60201b60201c565b81600190805190602001906200011c92919062000302565b5080600290805190602001906200013592919062000302565b505050620001ad7f22c82707ba960a14c7592ffb6b8cfaa073fed0048a84cc7fa41f6b5bd8e7f2e47f3a6eb71757dfc6e784c1459d26270140c2c147d95ca985c80026fc5301c3eca17f8a7e378434598edc36d108689a030cbc9d7d465de4f74c71bae1028eed6a881b18186200022a60201b60201c565b620002227f8230223f691b981717299fae9549350a0d894555723531f02108b1f522c1a7977f6da5e1284143cdd2d15038a59bde3be031250f00291d64494c12d967b3a4e0c37fc53637662700e6c65104059db8bba34439e0c32483ab7c34e3ccae52c739549518186200022a60201b60201c565b50506200049a565b63ffffffff60e01b817bffffffffffffffffffffffffffffffffffffffffffffffffffffffff1916141562000296576040517f08c379a00000000000000000000000000000000000000000000000000000000081526004016200028d9062000413565b60405180910390fd5b6001600080837bffffffffffffffffffffffffffffffffffffffffffffffffffffffff19167bffffffffffffffffffffffffffffffffffffffffffffffffffffffff1916815260200190815260200160002060006101000a81548160ff02191690831515021790555050565b828054620003109062000464565b90600052602060002090601f01602090048101928262000334576000855562000380565b82601f106200034f57805160ff191683800117855562000380565b8280016001018555821562000380579182015b828111156200037f57825182559160200191906001019062000362565b5b5090506200038f919062000393565b5090565b5b80821115620003ae57600081600090555060010162000394565b5090565b600082825260208201905092915050565b7f496e76616c696420696e74657266616365207265717565737400000000000000600082015250565b6000620003fb601983620003b2565b91506200040882620003c3565b602082019050919050565b600060208201905081810360008301526200042e81620003ec565b9050919050565b7f4e487b7100000000000000000000000000000000000000000000000000000000600052602260045260246000fd5b600060028204905060018216806200047d57607f821691505b6020821081141562000494576200049362000435565b5b50919050565b611df580620004aa6000396000f3fe608060405234801561001057600080fd5b50600436106100b45760003560e01c80634f6ccce7116100715780634f6ccce71461018d5780636352211e146101bd5780636f2b09a1146101ed57806370a082311461021d57806395d89b411461024d578063d85d3d271461026b576100b4565b806301ffc9a7146100b957806306fdde03146100e9578063095ea7b31461010757806318160ddd1461012357806323b872dd146101415780632f745c591461015d575b600080fd5b6100d360048036038101906100ce919061122a565b610287565b6040516100e09190611272565b60405180910390f35b6100f16102ee565b6040516100fe9190611326565b60405180910390f35b610121600480360381019061011c91906113dc565b610380565b005b61012b61051c565b604051610138919061142b565b60405180910390f35b61015b60048036038101906101569190611446565b610529565b005b610177600480360381019061017291906113dc565b61054c565b604051610184919061142b565b60405180910390f35b6101a760048036038101906101a29190611499565b610636565b6040516101b4919061142b565b60405180910390f35b6101d760048036038101906101d29190611499565b6106a7565b6040516101e491906114d5565b60405180910390f35b61020760048036038101906102029190611499565b610759565b6040516102149190611326565b60405180910390f35b610237600480360381019061023291906114f0565b610805565b604051610244919061142b565b60405180910390f35b6102556108c4565b6040516102629190611326565b60405180910390f35b61028560048036038101906102809190611652565b610956565b005b6000806000837bffffffffffffffffffffffffffffffffffffffffffffffffffffffff19167bffffffffffffffffffffffffffffffffffffffffffffffffffffffff1916815260200190815260200160002060009054906101000a900460ff169050919050565b6060600180546102fd906116ca565b80601f0160208091040260200160405190810160405280929190818152602001828054610329906116ca565b80156103765780601f1061034b57610100808354040283529160200191610376565b820191906000526020600020905b81548152906001019060200180831161035957829003601f168201915b5050505050905090565b600061038b826106a7565b90508073ffffffffffffffffffffffffffffffffffffffff168373ffffffffffffffffffffffffffffffffffffffff1614156103fc576040517f08c379a00000000000000000000000000000000000000000000000000000000081526004016103f39061176e565b60405180910390fd5b8073ffffffffffffffffffffffffffffffffffffffff163373ffffffffffffffffffffffffffffffffffffffff161461046a576040517f08c379a000000000000000000000000000000000000000000000000000000000815260040161046190611800565b60405180910390fd5b826005600084815260200190815260200160002060006101000a81548173ffffffffffffffffffffffffffffffffffffffff021916908373ffffffffffffffffffffffffffffffffffffffff160217905550818373ffffffffffffffffffffffffffffffffffffffff168273ffffffffffffffffffffffffffffffffffffffff167f8c5be1e5ebec7d5bd14f71427d1e84f3dd0314c0f7b2291e5b200ac8c7c3b92560405160405180910390a4505050565b6000600680549050905090565b6105333382610a59565b61053c57600080fd5b610547838383610ae8565b505050565b6000600860008473ffffffffffffffffffffffffffffffffffffffff1673ffffffffffffffffffffffffffffffffffffffff1681526020019081526020016000208054905082106105d2576040517f08c379a00000000000000000000000000000000000000000000000000000000081526004016105c99061186c565b60405180910390fd5b600860008473ffffffffffffffffffffffffffffffffffffffff1673ffffffffffffffffffffffffffffffffffffffff16815260200190815260200160002082815481106106235761062261188c565b5b9060005260206000200154905092915050565b600061064061051c565b8210610681576040517f08c379a00000000000000000000000000000000000000000000000000000000081526004016106789061186c565b60405180910390fd5b600682815481106106955761069461188c565b5b90600052602060002001549050919050565b6000806003600084815260200190815260200160002060009054906101000a900473ffffffffffffffffffffffffffffffffffffffff169050600073ffffffffffffffffffffffffffffffffffffffff168173ffffffffffffffffffffffffffffffffffffffff161415610750576040517f08c379a000000000000000000000000000000000000000000000000000000000815260040161074790611907565b60405180910390fd5b80915050919050565b600a818154811061076957600080fd5b906000526020600020016000915090508054610784906116ca565b80601f01602080910402602001604051908101604052809291908181526020018280546107b0906116ca565b80156107fd5780601f106107d2576101008083540402835291602001916107fd565b820191906000526020600020905b8154815290600101906020018083116107e057829003601f168201915b505050505081565b60008073ffffffffffffffffffffffffffffffffffffffff168273ffffffffffffffffffffffffffffffffffffffff161415610876576040517f08c379a000000000000000000000000000000000000000000000000000000000815260040161086d90611907565b60405180910390fd5b6108bd600460008473ffffffffffffffffffffffffffffffffffffffff1673ffffffffffffffffffffffffffffffffffffffff168152602001908152602001600020610d0e565b9050919050565b6060600280546108d3906116ca565b80601f01602080910402602001604051908101604052809291908181526020018280546108ff906116ca565b801561094c5780601f106109215761010080835404028352916020019161094c565b820191906000526020600020905b81548152906001019060200180831161092f57829003601f168201915b5050505050905090565b600b816040516109669190611963565b908152602001604051809103902060009054906101000a900460ff16156109c2576040517f08c379a00000000000000000000000000000000000000000000000000000000081526004016109b9906119c6565b60405180910390fd5b600a819080600181540180825580915050600190039060005260206000200160009091909190915090805190602001906109fd92919061111b565b5060006001600a80549050610a129190611a15565b9050610a1e3382610d1c565b6001600b83604051610a309190611963565b908152602001604051809103902060006101000a81548160ff0219169083151502179055505050565b6000610a6482610d3d565b610aa3576040517f08c379a0000000000000000000000000000000000000000000000000000000008152600401610a9a90611a95565b60405180910390fd5b6000610aae836106a7565b90508073ffffffffffffffffffffffffffffffffffffffff168473ffffffffffffffffffffffffffffffffffffffff161491505092915050565b600073ffffffffffffffffffffffffffffffffffffffff168273ffffffffffffffffffffffffffffffffffffffff161415610b58576040517f08c379a0000000000000000000000000000000000000000000000000000000008152600401610b4f90611b27565b60405180910390fd5b8273ffffffffffffffffffffffffffffffffffffffff16610b78826106a7565b73ffffffffffffffffffffffffffffffffffffffff1614610bce576040517f08c379a0000000000000000000000000000000000000000000000000000000008152600401610bc590611bb9565b60405180910390fd5b610c15600460008573ffffffffffffffffffffffffffffffffffffffff1673ffffffffffffffffffffffffffffffffffffffff168152602001908152602001600020610daf565b610c5c600460008473ffffffffffffffffffffffffffffffffffffffff1673ffffffffffffffffffffffffffffffffffffffff168152602001908152602001600020610dd2565b816003600083815260200190815260200160002060006101000a81548173ffffffffffffffffffffffffffffffffffffffff021916908373ffffffffffffffffffffffffffffffffffffffff160217905550808273ffffffffffffffffffffffffffffffffffffffff168473ffffffffffffffffffffffffffffffffffffffff167fddf252ad1be2c89b69c2b068fc378daa952ba7f163c4a11628f55a4df523b3ef60405160405180910390a4505050565b600081600001549050919050565b610d268282610df1565b610d308282610fa3565b610d3981611073565b5050565b6000806003600084815260200190815260200160002060009054906101000a900473ffffffffffffffffffffffffffffffffffffffff169050600073ffffffffffffffffffffffffffffffffffffffff168173ffffffffffffffffffffffffffffffffffffffff161415915050919050565b610dc7600182600001546110bc90919063ffffffff16565b816000018190555050565b6001816000016000828254610de79190611bd9565b9250508190555050565b600073ffffffffffffffffffffffffffffffffffffffff168273ffffffffffffffffffffffffffffffffffffffff161415610e61576040517f08c379a0000000000000000000000000000000000000000000000000000000008152600401610e5890611ca1565b60405180910390fd5b610e6a81610d3d565b15610eaa576040517f08c379a0000000000000000000000000000000000000000000000000000000008152600401610ea190611d0d565b60405180910390fd5b816003600083815260200190815260200160002060006101000a81548173ffffffffffffffffffffffffffffffffffffffff021916908373ffffffffffffffffffffffffffffffffffffffff160217905550610f43600460008473ffffffffffffffffffffffffffffffffffffffff1673ffffffffffffffffffffffffffffffffffffffff168152602001908152602001600020610dd2565b808273ffffffffffffffffffffffffffffffffffffffff16600073ffffffffffffffffffffffffffffffffffffffff167fddf252ad1be2c89b69c2b068fc378daa952ba7f163c4a11628f55a4df523b3ef60405160405180910390a45050565b600860008373ffffffffffffffffffffffffffffffffffffffff1673ffffffffffffffffffffffffffffffffffffffff1681526020019081526020016000208190806001815401808255809150506001900390600052602060002001600090919091909150556001600860008473ffffffffffffffffffffffffffffffffffffffff1673ffffffffffffffffffffffffffffffffffffffff168152602001908152602001600020805490506110589190611a15565b60096000838152602001908152602001600020819055505050565b6006805490506007600083815260200190815260200160002081905550600681908060018154018082558091505060019003906000526020600020016000909190919091505550565b600082821115611101576040517f08c379a00000000000000000000000000000000000000000000000000000000081526004016110f890611d9f565b60405180910390fd5b6000828461110f9190611a15565b90508091505092915050565b828054611127906116ca565b90600052602060002090601f0160209004810192826111495760008555611190565b82601f1061116257805160ff1916838001178555611190565b82800160010185558215611190579182015b8281111561118f578251825591602001919060010190611174565b5b50905061119d91906111a1565b5090565b5b808211156111ba5760008160009055506001016111a2565b5090565b6000604051905090565b600080fd5b600080fd5b60007fffffffff0000000000000000000000000000000000000000000000000000000082169050919050565b611207816111d2565b811461121257600080fd5b50565b600081359050611224816111fe565b92915050565b6000602082840312156112405761123f6111c8565b5b600061124e84828501611215565b91505092915050565b60008115159050919050565b61126c81611257565b82525050565b60006020820190506112876000830184611263565b92915050565b600081519050919050565b600082825260208201905092915050565b60005b838110156112c75780820151818401526020810190506112ac565b838111156112d6576000848401525b50505050565b6000601f19601f8301169050919050565b60006112f88261128d565b6113028185611298565b93506113128185602086016112a9565b61131b816112dc565b840191505092915050565b6000602082019050818103600083015261134081846112ed565b905092915050565b600073ffffffffffffffffffffffffffffffffffffffff82169050919050565b600061137382611348565b9050919050565b61138381611368565b811461138e57600080fd5b50565b6000813590506113a08161137a565b92915050565b6000819050919050565b6113b9816113a6565b81146113c457600080fd5b50565b6000813590506113d6816113b0565b92915050565b600080604083850312156113f3576113f26111c8565b5b600061140185828601611391565b9250506020611412858286016113c7565b9150509250929050565b611425816113a6565b82525050565b6000602082019050611440600083018461141c565b92915050565b60008060006060848603121561145f5761145e6111c8565b5b600061146d86828701611391565b935050602061147e86828701611391565b925050604061148f868287016113c7565b9150509250925092565b6000602082840312156114af576114ae6111c8565b5b60006114bd848285016113c7565b91505092915050565b6114cf81611368565b82525050565b60006020820190506114ea60008301846114c6565b92915050565b600060208284031215611506576115056111c8565b5b600061151484828501611391565b91505092915050565b600080fd5b600080fd5b7f4e487b7100000000000000000000000000000000000000000000000000000000600052604160045260246000fd5b61155f826112dc565b810181811067ffffffffffffffff8211171561157e5761157d611527565b5b80604052505050565b60006115916111be565b905061159d8282611556565b919050565b600067ffffffffffffffff8211156115bd576115bc611527565b5b6115c6826112dc565b9050602081019050919050565b82818337600083830152505050565b60006115f56115f0846115a2565b611587565b90508281526020810184848401111561161157611610611522565b5b61161c8482856115d3565b509392505050565b600082601f8301126116395761163861151d565b5b81356116498482602086016115e2565b91505092915050565b600060208284031215611668576116676111c8565b5b600082013567ffffffffffffffff811115611686576116856111cd565b5b61169284828501611624565b91505092915050565b7f4e487b7100000000000000000000000000000000000000000000000000000000600052602260045260246000fd5b600060028204905060018216806116e257607f821691505b602082108114156116f6576116f561169b565b5b50919050565b7f4572726f72202d206170726f626163696f6e20616c2070726f7069657461726960008201527f6f2061637475616c000000000000000000000000000000000000000000000000602082015250565b6000611758602883611298565b9150611763826116fc565b604082019050919050565b600060208201905081810360008301526117878161174b565b9050919050565b7f4c6120706572736f6e6120717565206c6c616d612061637475616c6d656e746560008201527f20646562652073657220656c2070726f706965746172696f0000000000000000602082015250565b60006117ea603883611298565b91506117f58261178e565b604082019050919050565b60006020820190508181036000830152611819816117dd565b9050919050565b7f496e646578206f7574206f6620626f756e647300000000000000000000000000600082015250565b6000611856601383611298565b915061186182611820565b602082019050919050565b6000602082019050818103600083015261188581611849565b9050919050565b7f4e487b7100000000000000000000000000000000000000000000000000000000600052603260045260246000fd5b7f4c6120446972656363696f6e206573746120656e204365726f00000000000000600082015250565b60006118f1601983611298565b91506118fc826118bb565b602082019050919050565b60006020820190508181036000830152611920816118e4565b9050919050565b600081905092915050565b600061193d8261128d565b6119478185611927565b93506119578185602086016112a9565b80840191505092915050565b600061196f8284611932565b915081905092915050565b7f4572726f72202d206573746520546f6b656e2079612065786973746500000000600082015250565b60006119b0601c83611298565b91506119bb8261197a565b602082019050919050565b600060208201905081810360008301526119df816119a3565b9050919050565b7f4e487b7100000000000000000000000000000000000000000000000000000000600052601160045260246000fd5b6000611a20826113a6565b9150611a2b836113a6565b925082821015611a3e57611a3d6119e6565b5b828203905092915050565b7f456c20546f6b656e206e6f206578697374650000000000000000000000000000600082015250565b6000611a7f601283611298565b9150611a8a82611a49565b602082019050919050565b60006020820190508181036000830152611aae81611a72565b9050919050565b7f4572726f72202d20455243373231205452414e6649455245204120554e41204460008201527f4952454343494f4e204345524f00000000000000000000000000000000000000602082015250565b6000611b11602d83611298565b9150611b1c82611ab5565b604082019050919050565b60006020820190508181036000830152611b4081611b04565b9050919050565b7f534520455354412054524154414e444f204445205452414e464552495220412060008201527f554e41204944524543494f4e204e4f20504f5250494554415249412100000000602082015250565b6000611ba3603c83611298565b9150611bae82611b47565b604082019050919050565b60006020820190508181036000830152611bd281611b96565b9050919050565b6000611be4826113a6565b9150611bef836113a6565b9250827fffffffffffffffffffffffffffffffffffffffffffffffffffffffffffffffff03821115611c2457611c236119e6565b5b828201905092915050565b7f45524337323120444952454343494f4e204445204143554343494f4e2045532060008201527f4345524f00000000000000000000000000000000000000000000000000000000602082015250565b6000611c8b602483611298565b9150611c9682611c2f565b604082019050919050565b60006020820190508181036000830152611cba81611c7e565b9050919050565b7f4552433732312059412045584953544500000000000000000000000000000000600082015250565b6000611cf7601083611298565b9150611d0282611cc1565b602082019050919050565b60006020820190508181036000830152611d2681611cea565b9050919050565b7f536166656d6174683a20646573626f7264616d69656e746f206465207265737460008201527f6100000000000000000000000000000000000000000000000000000000000000602082015250565b6000611d89602183611298565b9150611d9482611d2d565b604082019050919050565b60006020820190508181036000830152611db881611d7c565b905091905056fea2646970667358221220a46b4b5f841a5f1261044d6f82a80cf6845207dfa613730f18554929bd458cdc64736f6c634300080a0033",
  "immutableReferences": {},
  "source": "// SPDX-License-Identifier: MIT \r\npragma solidity ^0.8.10;\r\n\r\nimport './ERC721Connector.sol';\r\n\r\ncontract TokenMall is ERC721Connector {\r\n\r\n    //Matriz para guardar nuestros NFTs\r\n    string[] public TokenMallNFT;\r\n\r\n    mapping(string => bool) _TokenMallNFTExists;\r\n\r\n    function mint(string memory _tokenmall) public {\r\n\r\n        require(!_TokenMallNFTExists[_tokenmall], 'Error - este Token ya existe');\r\n\r\n        TokenMallNFT.push(_tokenmall);\r\n        uint _id = TokenMallNFT.length -1;\r\n\r\n        _mint(msg.sender, _id);\r\n\r\n        _TokenMallNFTExists[_tokenmall] = true;\r\n    }\r\n\r\n    constructor() ERC721Connector('TokenMall','SepoliaETH') {}\r\n\r\n}\r\n",
  "sourcePath": "C:\\Users\\Rudy Griffin\\Desktop\\ws\\temp\\clonado\\tokenizacion\\src\\contracts\\TokenMall.sol",
  "compiler": {
    "name": "solc",
    "version": "0.8.10+commit.fc410830.Emscripten.clang"
  },
  "schemaVersion": "3.4.16",
  "updatedAt": "2023-10-23T12:25:20.106Z",
  "networkType": "ethereum",
  "devdoc": {
    "kind": "dev",
    "methods": {},
    "version": 1
  },
  "userdoc": {
    "kind": "user",
    "methods": {},
    "version": 1
  }
}