{
  "contractName": "TokenMall",
  "abi": [
    {
      "inputs": [],
      "stateMutability": "nonpayable",
      "type": "constructor"
    },
    {
      "anonymous": false,
      "inputs": [
        {
          "indexed": true,
          "internalType": "address",
          "name": "from",
          "type": "address"
        },
        {
          "indexed": true,
          "internalType": "address",
          "name": "to",
          "type": "address"
        },
        {
          "indexed": true,
          "internalType": "uint256",
          "name": "tokenId",
          "type": "uint256"
        }
      ],
      "name": "Transfer",
      "type": "event"
    },
    {
      "inputs": [
        {
          "internalType": "uint256",
          "name": "",
          "type": "uint256"
        }
      ],
      "name": "TokenMallNFT",
      "outputs": [
        {
          "internalType": "string",
          "name": "",
          "type": "string"
        }
      ],
      "stateMutability": "view",
      "type": "function",
      "constant": true
    },
    {
      "inputs": [
        {
          "internalType": "address",
          "name": "_owner",
          "type": "address"
        }
      ],
      "name": "balanceOf",
      "outputs": [
        {
          "internalType": "uint256",
          "name": "",
          "type": "uint256"
        }
      ],
      "stateMutability": "view",
      "type": "function",
      "constant": true
    },
    {
      "inputs": [],
      "name": "name",
      "outputs": [
        {
          "internalType": "string",
          "name": "",
          "type": "string"
        }
      ],
      "stateMutability": "view",
      "type": "function",
      "constant": true
    },
    {
      "inputs": [
        {
          "internalType": "uint256",
          "name": "_tokenId",
          "type": "uint256"
        }
      ],
      "name": "ownerOf",
      "outputs": [
        {
          "internalType": "address",
          "name": "",
          "type": "address"
        }
      ],
      "stateMutability": "view",
      "type": "function",
      "constant": true
    },
    {
      "inputs": [],
      "name": "symbol",
      "outputs": [
        {
          "internalType": "string",
          "name": "",
          "type": "string"
        }
      ],
      "stateMutability": "view",
      "type": "function",
      "constant": true
    },
    {
      "inputs": [
        {
          "internalType": "uint256",
          "name": "index",
          "type": "uint256"
        }
      ],
      "name": "tokenByIndex",
      "outputs": [
        {
          "internalType": "uint256",
          "name": "",
          "type": "uint256"
        }
      ],
      "stateMutability": "view",
      "type": "function",
      "constant": true
    },
    {
      "inputs": [
        {
          "internalType": "address",
          "name": "owner",
          "type": "address"
        },
        {
          "internalType": "uint256",
          "name": "index",
          "type": "uint256"
        }
      ],
      "name": "tokenOfOwnerByIndex",
      "outputs": [
        {
          "internalType": "uint256",
          "name": "",
          "type": "uint256"
        }
      ],
      "stateMutability": "view",
      "type": "function",
      "constant": true
    },
    {
      "inputs": [],
      "name": "totalSupply",
      "outputs": [
        {
          "internalType": "uint256",
          "name": "",
          "type": "uint256"
        }
      ],
      "stateMutability": "view",
      "type": "function",
      "constant": true
    },
    {
      "inputs": [
        {
          "internalType": "string",
          "name": "_tokenmall",
          "type": "string"
        }
      ],
      "name": "mint",
      "outputs": [],
      "stateMutability": "nonpayable",
      "type": "function"
    }
  ],
  "bytecode": "0x60806040523480156200001157600080fd5b506040518060400160405280600981526020017f546f6b656e4d616c6c00000000000000000000000000000000000000000000008152506040518060400160405280600a81526020017f5365706f6c6961455448000000000000000000000000000000000000000000008152508181816000908051906020019062000098929190620000bc565b508060019080519060200190620000b1929190620000bc565b5050505050620001d1565b828054620000ca906200019b565b90600052602060002090601f016020900481019282620000ee57600085556200013a565b82601f106200010957805160ff19168380011785556200013a565b828001600101855582156200013a579182015b82811115620001395782518255916020019190600101906200011c565b5b5090506200014991906200014d565b5090565b5b80821115620001685760008160009055506001016200014e565b5090565b7f4e487b7100000000000000000000000000000000000000000000000000000000600052602260045260246000fd5b60006002820490506001821680620001b457607f821691505b60208210811415620001cb57620001ca6200016c565b5b50919050565b61139780620001e16000396000f3fe608060405234801561001057600080fd5b50600436106100935760003560e01c80636352211e116100665780636352211e146101345780636f2b09a11461016457806370a082311461019457806395d89b41146101c4578063d85d3d27146101e257610093565b806306fdde031461009857806318160ddd146100b65780632f745c59146100d45780634f6ccce714610104575b600080fd5b6100a06101fe565b6040516100ad9190610c4d565b60405180910390f35b6100be610290565b6040516100cb9190610c88565b60405180910390f35b6100ee60048036038101906100e99190610d41565b61029d565b6040516100fb9190610c88565b60405180910390f35b61011e60048036038101906101199190610d81565b610387565b60405161012b9190610c88565b60405180910390f35b61014e60048036038101906101499190610d81565b6103f8565b60405161015b9190610dbd565b60405180910390f35b61017e60048036038101906101799190610d81565b6104aa565b60405161018b9190610c4d565b60405180910390f35b6101ae60048036038101906101a99190610dd8565b610556565b6040516101bb9190610c88565b60405180910390f35b6101cc61060e565b6040516101d99190610c4d565b60405180910390f35b6101fc60048036038101906101f79190610f3a565b6106a0565b005b60606000805461020d90610fb2565b80601f016020809104026020016040519081016040528092919081815260200182805461023990610fb2565b80156102865780601f1061025b57610100808354040283529160200191610286565b820191906000526020600020905b81548152906001019060200180831161026957829003601f168201915b5050505050905090565b6000600480549050905090565b6000600660008473ffffffffffffffffffffffffffffffffffffffff1673ffffffffffffffffffffffffffffffffffffffff168152602001908152602001600020805490508210610323576040517f08c379a000000000000000000000000000000000000000000000000000000000815260040161031a90611030565b60405180910390fd5b600660008473ffffffffffffffffffffffffffffffffffffffff1673ffffffffffffffffffffffffffffffffffffffff168152602001908152602001600020828154811061037457610373611050565b5b9060005260206000200154905092915050565b6000610391610290565b82106103d2576040517f08c379a00000000000000000000000000000000000000000000000000000000081526004016103c990611030565b60405180910390fd5b600482815481106103e6576103e5611050565b5b90600052602060002001549050919050565b6000806002600084815260200190815260200160002060009054906101000a900473ffffffffffffffffffffffffffffffffffffffff169050600073ffffffffffffffffffffffffffffffffffffffff168173ffffffffffffffffffffffffffffffffffffffff1614156104a1576040517f08c379a0000000000000000000000000000000000000000000000000000000008152600401610498906110cb565b60405180910390fd5b80915050919050565b600881815481106104ba57600080fd5b9060005260206000200160009150905080546104d590610fb2565b80601f016020809104026020016040519081016040528092919081815260200182805461050190610fb2565b801561054e5780601f106105235761010080835404028352916020019161054e565b820191906000526020600020905b81548152906001019060200180831161053157829003601f168201915b505050505081565b60008073ffffffffffffffffffffffffffffffffffffffff168273ffffffffffffffffffffffffffffffffffffffff1614156105c7576040517f08c379a00000000000000000000000000000000000000000000000000000000081526004016105be906110cb565b60405180910390fd5b600360008373ffffffffffffffffffffffffffffffffffffffff1673ffffffffffffffffffffffffffffffffffffffff168152602001908152602001600020549050919050565b60606001805461061d90610fb2565b80601f016020809104026020016040519081016040528092919081815260200182805461064990610fb2565b80156106965780601f1061066b57610100808354040283529160200191610696565b820191906000526020600020905b81548152906001019060200180831161067957829003601f168201915b5050505050905090565b6009816040516106b09190611127565b908152602001604051809103902060009054906101000a900460ff161561070c576040517f08c379a00000000000000000000000000000000000000000000000000000000081526004016107039061118a565b60405180910390fd5b600881908060018154018082558091505060019003906000526020600020016000909190919091509080519060200190610747929190610b11565b506000600160088054905061075c91906111d9565b905061076833826107a3565b600160098360405161077a9190611127565b908152602001604051809103902060006101000a81548160ff0219169083151502179055505050565b6107ad82826107c4565b6107b78282610986565b6107c081610a56565b5050565b600073ffffffffffffffffffffffffffffffffffffffff168273ffffffffffffffffffffffffffffffffffffffff161415610834576040517f08c379a000000000000000000000000000000000000000000000000000000000815260040161082b9061127f565b60405180910390fd5b61083d81610a9f565b1561087d576040517f08c379a0000000000000000000000000000000000000000000000000000000008152600401610874906112eb565b60405180910390fd5b816002600083815260200190815260200160002060006101000a81548173ffffffffffffffffffffffffffffffffffffffff021916908373ffffffffffffffffffffffffffffffffffffffff1602179055506001600360008473ffffffffffffffffffffffffffffffffffffffff1673ffffffffffffffffffffffffffffffffffffffff168152602001908152602001600020600082825461091f919061130b565b92505081905550808273ffffffffffffffffffffffffffffffffffffffff16600073ffffffffffffffffffffffffffffffffffffffff167fddf252ad1be2c89b69c2b068fc378daa952ba7f163c4a11628f55a4df523b3ef60405160405180910390a45050565b600660008373ffffffffffffffffffffffffffffffffffffffff1673ffffffffffffffffffffffffffffffffffffffff1681526020019081526020016000208190806001815401808255809150506001900390600052602060002001600090919091909150556001600660008473ffffffffffffffffffffffffffffffffffffffff1673ffffffffffffffffffffffffffffffffffffffff16815260200190815260200160002080549050610a3b91906111d9565b60076000838152602001908152602001600020819055505050565b6004805490506005600083815260200190815260200160002081905550600481908060018154018082558091505060019003906000526020600020016000909190919091505550565b6000806002600084815260200190815260200160002060009054906101000a900473ffffffffffffffffffffffffffffffffffffffff169050600073ffffffffffffffffffffffffffffffffffffffff168173ffffffffffffffffffffffffffffffffffffffff161415915050919050565b828054610b1d90610fb2565b90600052602060002090601f016020900481019282610b3f5760008555610b86565b82601f10610b5857805160ff1916838001178555610b86565b82800160010185558215610b86579182015b82811115610b85578251825591602001919060010190610b6a565b5b509050610b939190610b97565b5090565b5b80821115610bb0576000816000905550600101610b98565b5090565b600081519050919050565b600082825260208201905092915050565b60005b83811015610bee578082015181840152602081019050610bd3565b83811115610bfd576000848401525b50505050565b6000601f19601f8301169050919050565b6000610c1f82610bb4565b610c298185610bbf565b9350610c39818560208601610bd0565b610c4281610c03565b840191505092915050565b60006020820190508181036000830152610c678184610c14565b905092915050565b6000819050919050565b610c8281610c6f565b82525050565b6000602082019050610c9d6000830184610c79565b92915050565b6000604051905090565b600080fd5b600080fd5b600073ffffffffffffffffffffffffffffffffffffffff82169050919050565b6000610ce282610cb7565b9050919050565b610cf281610cd7565b8114610cfd57600080fd5b50565b600081359050610d0f81610ce9565b92915050565b610d1e81610c6f565b8114610d2957600080fd5b50565b600081359050610d3b81610d15565b92915050565b60008060408385031215610d5857610d57610cad565b5b6000610d6685828601610d00565b9250506020610d7785828601610d2c565b9150509250929050565b600060208284031215610d9757610d96610cad565b5b6000610da584828501610d2c565b91505092915050565b610db781610cd7565b82525050565b6000602082019050610dd26000830184610dae565b92915050565b600060208284031215610dee57610ded610cad565b5b6000610dfc84828501610d00565b91505092915050565b600080fd5b600080fd5b7f4e487b7100000000000000000000000000000000000000000000000000000000600052604160045260246000fd5b610e4782610c03565b810181811067ffffffffffffffff82111715610e6657610e65610e0f565b5b80604052505050565b6000610e79610ca3565b9050610e858282610e3e565b919050565b600067ffffffffffffffff821115610ea557610ea4610e0f565b5b610eae82610c03565b9050602081019050919050565b82818337600083830152505050565b6000610edd610ed884610e8a565b610e6f565b905082815260208101848484011115610ef957610ef8610e0a565b5b610f04848285610ebb565b509392505050565b600082601f830112610f2157610f20610e05565b5b8135610f31848260208601610eca565b91505092915050565b600060208284031215610f5057610f4f610cad565b5b600082013567ffffffffffffffff811115610f6e57610f6d610cb2565b5b610f7a84828501610f0c565b91505092915050565b7f4e487b7100000000000000000000000000000000000000000000000000000000600052602260045260246000fd5b60006002820490506001821680610fca57607f821691505b60208210811415610fde57610fdd610f83565b5b50919050565b7f496e646578206f7574206f6620626f756e647300000000000000000000000000600082015250565b600061101a601383610bbf565b915061102582610fe4565b602082019050919050565b600060208201905081810360008301526110498161100d565b9050919050565b7f4e487b7100000000000000000000000000000000000000000000000000000000600052603260045260246000fd5b7f4c6120446972656363696f6e206573746120656e204365726f00000000000000600082015250565b60006110b5601983610bbf565b91506110c08261107f565b602082019050919050565b600060208201905081810360008301526110e4816110a8565b9050919050565b600081905092915050565b600061110182610bb4565b61110b81856110eb565b935061111b818560208601610bd0565b80840191505092915050565b600061113382846110f6565b915081905092915050565b7f4572726f72202d206573746520546f6b656e2079612065786973746500000000600082015250565b6000611174601c83610bbf565b915061117f8261113e565b602082019050919050565b600060208201905081810360008301526111a381611167565b9050919050565b7f4e487b7100000000000000000000000000000000000000000000000000000000600052601160045260246000fd5b60006111e482610c6f565b91506111ef83610c6f565b925082821015611202576112016111aa565b5b828203905092915050565b7f45524337323120444952454343494f4e204445204143554343494f4e2045532060008201527f4345524f00000000000000000000000000000000000000000000000000000000602082015250565b6000611269602483610bbf565b91506112748261120d565b604082019050919050565b600060208201905081810360008301526112988161125c565b9050919050565b7f4552433732312059412045584953544500000000000000000000000000000000600082015250565b60006112d5601083610bbf565b91506112e08261129f565b602082019050919050565b60006020820190508181036000830152611304816112c8565b9050919050565b600061131682610c6f565b915061132183610c6f565b9250827fffffffffffffffffffffffffffffffffffffffffffffffffffffffffffffffff03821115611356576113556111aa565b5b82820190509291505056fea264697066735822122077a1d4a7789f3ba7432bf7e7451eb40a29681a50addaec07733f874c37eb75a964736f6c634300080a0033",
  "immutableReferences": {},
  "source": "// SPDX-License-Identifier: MIT \r\npragma solidity ^0.8.10;\r\n\r\nimport './ERC721Connector.sol';\r\n\r\ncontract TokenMall is ERC721Connector {\r\n\r\n    //Matriz para guardar nuestros NFTs\r\n    string[] public TokenMallNFT;\r\n\r\n    mapping(string => bool) _TokenMallNFTExists;\r\n\r\n    function mint(string memory _tokenmall) public {\r\n\r\n        require(!_TokenMallNFTExists[_tokenmall], 'Error - este Token ya existe');\r\n\r\n        TokenMallNFT.push(_tokenmall);\r\n        uint _id = TokenMallNFT.length -1;\r\n\r\n        _mint(msg.sender, _id);\r\n\r\n        _TokenMallNFTExists[_tokenmall] = true;\r\n    }\r\n\r\n    constructor() ERC721Connector('TokenMall','SepoliaETH') {}\r\n\r\n}\r\n",
  "sourcePath": "C:\\Users\\Rudy Griffin\\Desktop\\ws\\temp\\clonado\\tokenizacion\\src\\contracts\\TokenMall.sol",
  "compiler": {
    "name": "solc",
    "version": "0.8.10+commit.fc410830.Emscripten.clang"
  },
  "schemaVersion": "3.4.16",
  "updatedAt": "2023-10-11T09:38:46.631Z",
  "networkType": "ethereum",
  "devdoc": {
    "kind": "dev",
    "methods": {},
    "version": 1
  },
  "userdoc": {
    "kind": "user",
    "methods": {},
    "version": 1
  }
}